{
    "_format": "hh-sol-artifact-1",
    "contractName": "BenMezrichProject2",
    "sourceName": "contracts/BeNFT.sol",
    "abi": [
        {
            "inputs": [
                {
                    "internalType": "bytes32",
                    "name": "merkleroot",
                    "type": "bytes32"
                }
            ],
            "stateMutability": "nonpayable",
            "type": "constructor"
        },
        {
            "anonymous": false,
            "inputs": [
                {
                    "indexed": true,
                    "internalType": "address",
                    "name": "owner",
                    "type": "address"
                },
                {
                    "indexed": true,
                    "internalType": "address",
                    "name": "approved",
                    "type": "address"
                },
                {
                    "indexed": true,
                    "internalType": "uint256",
                    "name": "tokenId",
                    "type": "uint256"
                }
            ],
            "name": "Approval",
            "type": "event"
        },
        {
            "anonymous": false,
            "inputs": [
                {
                    "indexed": true,
                    "internalType": "address",
                    "name": "owner",
                    "type": "address"
                },
                {
                    "indexed": true,
                    "internalType": "address",
                    "name": "operator",
                    "type": "address"
                },
                {
                    "indexed": false,
                    "internalType": "bool",
                    "name": "approved",
                    "type": "bool"
                }
            ],
            "name": "ApprovalForAll",
            "type": "event"
        },
        {
            "anonymous": false,
            "inputs": [
                {
                    "indexed": true,
                    "internalType": "address",
                    "name": "previousOwner",
                    "type": "address"
                },
                {
                    "indexed": true,
                    "internalType": "address",
                    "name": "newOwner",
                    "type": "address"
                }
            ],
            "name": "OwnershipTransferred",
            "type": "event"
        },
        {
            "anonymous": false,
            "inputs": [
                {
                    "indexed": true,
                    "internalType": "address",
                    "name": "from",
                    "type": "address"
                },
                {
                    "indexed": true,
                    "internalType": "address",
                    "name": "to",
                    "type": "address"
                },
                {
                    "indexed": true,
                    "internalType": "uint256",
                    "name": "tokenId",
                    "type": "uint256"
                }
            ],
            "name": "Transfer",
            "type": "event"
        },
        {
            "inputs": [
                {
                    "internalType": "address",
                    "name": "to",
                    "type": "address"
                },
                {
                    "internalType": "uint256",
                    "name": "tokenId",
                    "type": "uint256"
                }
            ],
            "name": "approve",
            "outputs": [],
            "stateMutability": "nonpayable",
            "type": "function"
        },
        {
            "inputs": [
                {
                    "internalType": "address",
                    "name": "owner",
                    "type": "address"
                }
            ],
            "name": "balanceOf",
            "outputs": [
                {
                    "internalType": "uint256",
                    "name": "",
                    "type": "uint256"
                }
            ],
            "stateMutability": "view",
            "type": "function"
        },
        {
            "inputs": [],
            "name": "baseURI",
            "outputs": [
                {
                    "internalType": "string",
                    "name": "",
                    "type": "string"
                }
            ],
            "stateMutability": "view",
            "type": "function"
        },
        {
            "inputs": [],
            "name": "closeMinting",
            "outputs": [],
            "stateMutability": "nonpayable",
            "type": "function"
        },
        {
            "inputs": [
                {
                    "internalType": "uint256",
                    "name": "tokenId",
                    "type": "uint256"
                }
            ],
            "name": "getApproved",
            "outputs": [
                {
                    "internalType": "address",
                    "name": "",
                    "type": "address"
                }
            ],
            "stateMutability": "view",
            "type": "function"
        },
        {
            "inputs": [
                {
                    "internalType": "address",
                    "name": "owner",
                    "type": "address"
                },
                {
                    "internalType": "address",
                    "name": "operator",
                    "type": "address"
                }
            ],
            "name": "isApprovedForAll",
            "outputs": [
                {
                    "internalType": "bool",
                    "name": "",
                    "type": "bool"
                }
            ],
            "stateMutability": "view",
            "type": "function"
        },
        {
            "inputs": [
                {
                    "internalType": "bytes32[]",
                    "name": "proof",
                    "type": "bytes32[]"
                }
            ],
            "name": "mint",
            "outputs": [],
            "stateMutability": "nonpayable",
            "type": "function"
        },
        {
            "inputs": [
                {
                    "internalType": "address",
                    "name": "",
                    "type": "address"
                }
            ],
            "name": "mintedWallets",
            "outputs": [
                {
                    "internalType": "bool",
                    "name": "",
                    "type": "bool"
                }
            ],
            "stateMutability": "view",
            "type": "function"
        },
        {
            "inputs": [],
            "name": "mintingOpen",
            "outputs": [
                {
                    "internalType": "bool",
                    "name": "",
                    "type": "bool"
                }
            ],
            "stateMutability": "view",
            "type": "function"
        },
        {
            "inputs": [],
            "name": "name",
            "outputs": [
                {
                    "internalType": "string",
                    "name": "",
                    "type": "string"
                }
            ],
            "stateMutability": "view",
            "type": "function"
        },
        {
            "inputs": [],
            "name": "nextToken",
            "outputs": [
                {
                    "internalType": "uint256",
                    "name": "",
                    "type": "uint256"
                }
            ],
            "stateMutability": "view",
            "type": "function"
        },
        {
            "inputs": [],
            "name": "openMinting",
            "outputs": [],
            "stateMutability": "nonpayable",
            "type": "function"
        },
        {
            "inputs": [],
            "name": "owner",
            "outputs": [
                {
                    "internalType": "address",
                    "name": "",
                    "type": "address"
                }
            ],
            "stateMutability": "view",
            "type": "function"
        },
        {
            "inputs": [
                {
                    "internalType": "uint256",
                    "name": "tokenId",
                    "type": "uint256"
                }
            ],
            "name": "ownerOf",
            "outputs": [
                {
                    "internalType": "address",
                    "name": "",
                    "type": "address"
                }
            ],
            "stateMutability": "view",
            "type": "function"
        },
        {
            "inputs": [],
            "name": "renounceOwnership",
            "outputs": [],
            "stateMutability": "nonpayable",
            "type": "function"
        },
        {
            "inputs": [],
            "name": "root",
            "outputs": [
                {
                    "internalType": "bytes32",
                    "name": "",
                    "type": "bytes32"
                }
            ],
            "stateMutability": "view",
            "type": "function"
        },
        {
            "inputs": [
                {
                    "internalType": "address",
                    "name": "from",
                    "type": "address"
                },
                {
                    "internalType": "address",
                    "name": "to",
                    "type": "address"
                },
                {
                    "internalType": "uint256",
                    "name": "tokenId",
                    "type": "uint256"
                }
            ],
            "name": "safeTransferFrom",
            "outputs": [],
            "stateMutability": "nonpayable",
            "type": "function"
        },
        {
            "inputs": [
                {
                    "internalType": "address",
                    "name": "from",
                    "type": "address"
                },
                {
                    "internalType": "address",
                    "name": "to",
                    "type": "address"
                },
                {
                    "internalType": "uint256",
                    "name": "tokenId",
                    "type": "uint256"
                },
                {
                    "internalType": "bytes",
                    "name": "_data",
                    "type": "bytes"
                }
            ],
            "name": "safeTransferFrom",
            "outputs": [],
            "stateMutability": "nonpayable",
            "type": "function"
        },
        {
            "inputs": [
                {
                    "internalType": "address",
                    "name": "operator",
                    "type": "address"
                },
                {
                    "internalType": "bool",
                    "name": "approved",
                    "type": "bool"
                }
            ],
            "name": "setApprovalForAll",
            "outputs": [],
            "stateMutability": "nonpayable",
            "type": "function"
        },
        {
            "inputs": [
                {
                    "internalType": "string",
                    "name": "_newBaseURI",
                    "type": "string"
                }
            ],
            "name": "setBaseURI",
            "outputs": [],
            "stateMutability": "nonpayable",
            "type": "function"
        },
        {
            "inputs": [
                {
                    "internalType": "bytes4",
                    "name": "interfaceId",
                    "type": "bytes4"
                }
            ],
            "name": "supportsInterface",
            "outputs": [
                {
                    "internalType": "bool",
                    "name": "",
                    "type": "bool"
                }
            ],
            "stateMutability": "view",
            "type": "function"
        },
        {
            "inputs": [],
            "name": "symbol",
            "outputs": [
                {
                    "internalType": "string",
                    "name": "",
                    "type": "string"
                }
            ],
            "stateMutability": "view",
            "type": "function"
        },
        {
            "inputs": [
                {
                    "internalType": "uint256",
                    "name": "tokenId",
                    "type": "uint256"
                }
            ],
            "name": "tokenURI",
            "outputs": [
                {
                    "internalType": "string",
                    "name": "",
                    "type": "string"
                }
            ],
            "stateMutability": "view",
            "type": "function"
        },
        {
            "inputs": [
                {
                    "internalType": "address",
                    "name": "from",
                    "type": "address"
                },
                {
                    "internalType": "address",
                    "name": "to",
                    "type": "address"
                },
                {
                    "internalType": "uint256",
                    "name": "tokenId",
                    "type": "uint256"
                }
            ],
            "name": "transferFrom",
            "outputs": [],
            "stateMutability": "nonpayable",
            "type": "function"
        },
        {
            "inputs": [
                {
                    "internalType": "address",
                    "name": "newOwner",
                    "type": "address"
                }
            ],
            "name": "transferOwnership",
            "outputs": [],
            "stateMutability": "nonpayable",
            "type": "function"
        },
        {
            "inputs": [],
            "name": "withdrawETH",
            "outputs": [],
            "stateMutability": "nonpayable",
            "type": "function"
        }
    ],
    "bytecode": "0x60a06040526000600a60006101000a81548160ff0219169083151502179055503480156200002c57600080fd5b5060405162003c1638038062003c168339818101604052810190620000529190620002b6565b6040518060400160405280601581526020017f42656e204d657a726963682050726f6a656374203200000000000000000000008152506040518060400160405280600681526020017f42454e46543200000000000000000000000000000000000000000000000000008152508160009080519060200190620000d6929190620001ef565b508060019080519060200190620000ef929190620001ef565b50505062000112620001066200012160201b60201c565b6200012960201b60201c565b8060808181525050506200036b565b600033905090565b6000600660009054906101000a900473ffffffffffffffffffffffffffffffffffffffff16905081600660006101000a81548173ffffffffffffffffffffffffffffffffffffffff021916908373ffffffffffffffffffffffffffffffffffffffff1602179055508173ffffffffffffffffffffffffffffffffffffffff168173ffffffffffffffffffffffffffffffffffffffff167f8be0079c531659141344cd1fd0a4f28419497f9722a3daafe3b4186f6b6457e060405160405180910390a35050565b828054620001fd90620002ec565b90600052602060002090601f0160209004810192826200022157600085556200026d565b82601f106200023c57805160ff19168380011785556200026d565b828001600101855582156200026d579182015b828111156200026c5782518255916020019190600101906200024f565b5b5090506200027c919062000280565b5090565b5b808211156200029b57600081600090555060010162000281565b5090565b600081519050620002b08162000351565b92915050565b600060208284031215620002c957600080fd5b6000620002d9848285016200029f565b91505092915050565b6000819050919050565b600060028204905060018216806200030557607f821691505b602082108114156200031c576200031b62000322565b5b50919050565b7f4e487b7100000000000000000000000000000000000000000000000000000000600052602260045260246000fd5b6200035c81620002e2565b81146200036857600080fd5b50565b6080516138886200038e60003960008181610ded01526112c701526138886000f3fe608060405234801561001057600080fd5b506004361061018e5760003560e01c80638da5cb5b116100de578063b77a147b11610097578063e086e5ec11610071578063e086e5ec14610449578063e985e9c514610453578063ebf0c71714610483578063f2fde38b146104a15761018e565b8063b77a147b146103e1578063b88d4fde146103fd578063c87b56dd146104195761018e565b80638da5cb5b1461031d5780638f4bb4971461033b5780639499ac541461035957806395d89b4114610377578063a22cb46514610395578063ada7c4ed146103b15761018e565b806355f804b31161014b5780636c0360eb116101255780636c0360eb146102bb57806370a08231146102d9578063715018a61461030957806387491c60146103135761018e565b806355f804b3146102655780636352211e146102815780636ba9fd38146102b15761018e565b806301ffc9a71461019357806306fdde03146101c3578063081812fc146101e1578063095ea7b31461021157806323b872dd1461022d57806342842e0e14610249575b600080fd5b6101ad60048036038101906101a891906125c8565b6104bd565b6040516101ba9190612bd0565b60405180910390f35b6101cb61059f565b6040516101d89190612c06565b60405180910390f35b6101fb60048036038101906101f6919061265f565b610631565b6040516102089190612b69565b60405180910390f35b61022b60048036038101906102269190612547565b6106b6565b005b61024760048036038101906102429190612441565b6107ce565b005b610263600480360381019061025e9190612441565b61082e565b005b61027f600480360381019061027a919061261a565b61084e565b005b61029b6004803603810190610296919061265f565b6108e0565b6040516102a89190612b69565b60405180910390f35b6102b9610992565b005b6102c3610a2b565b6040516102d09190612c06565b60405180910390f35b6102f360048036038101906102ee91906123dc565b610ab9565b6040516103009190612ea8565b60405180910390f35b610311610b71565b005b61031b610bf9565b005b610325610c92565b6040516103329190612b69565b60405180910390f35b610343610cbc565b6040516103509190612bd0565b60405180910390f35b610361610ccf565b60405161036e9190612ea8565b60405180910390f35b61037f610cd5565b60405161038c9190612c06565b60405180910390f35b6103af60048036038101906103aa919061250b565b610d67565b005b6103cb60048036038101906103c691906123dc565b610d7d565b6040516103d89190612bd0565b60405180910390f35b6103fb60048036038101906103f69190612583565b610d9d565b005b61041760048036038101906104129190612490565b61105b565b005b610433600480360381019061042e919061265f565b6110bd565b6040516104409190612c06565b60405180910390f35b610451611165565b005b61046d60048036038101906104689190612405565b611231565b60405161047a9190612bd0565b60405180910390f35b61048b6112c5565b6040516104989190612beb565b60405180910390f35b6104bb60048036038101906104b691906123dc565b6112e9565b005b60007f80ac58cd000000000000000000000000000000000000000000000000000000007bffffffffffffffffffffffffffffffffffffffffffffffffffffffff1916827bffffffffffffffffffffffffffffffffffffffffffffffffffffffff1916148061058857507f5b5e139f000000000000000000000000000000000000000000000000000000007bffffffffffffffffffffffffffffffffffffffffffffffffffffffff1916827bffffffffffffffffffffffffffffffffffffffffffffffffffffffff1916145b806105985750610597826113e1565b5b9050919050565b6060600080546105ae906130ec565b80601f01602080910402602001604051908101604052809291908181526020018280546105da906130ec565b80156106275780601f106105fc57610100808354040283529160200191610627565b820191906000526020600020905b81548152906001019060200180831161060a57829003601f168201915b5050505050905090565b600061063c8261144b565b61067b576040517f08c379a000000000000000000000000000000000000000000000000000000000815260040161067290612dc8565b60405180910390fd5b6004600083815260200190815260200160002060009054906101000a900473ffffffffffffffffffffffffffffffffffffffff169050919050565b60006106c1826108e0565b90508073ffffffffffffffffffffffffffffffffffffffff168373ffffffffffffffffffffffffffffffffffffffff161415610732576040517f08c379a000000000000000000000000000000000000000000000000000000000815260040161072990612e68565b60405180910390fd5b8073ffffffffffffffffffffffffffffffffffffffff166107516114b7565b73ffffffffffffffffffffffffffffffffffffffff161480610780575061077f8161077a6114b7565b611231565b5b6107bf576040517f08c379a00000000000000000000000000000000000000000000000000000000081526004016107b690612d48565b60405180910390fd5b6107c983836114bf565b505050565b6107df6107d96114b7565b82611578565b61081e576040517f08c379a000000000000000000000000000000000000000000000000000000000815260040161081590612e88565b60405180910390fd5b610829838383611656565b505050565b6108498383836040518060200160405280600081525061105b565b505050565b6108566114b7565b73ffffffffffffffffffffffffffffffffffffffff16610874610c92565b73ffffffffffffffffffffffffffffffffffffffff16146108ca576040517f08c379a00000000000000000000000000000000000000000000000000000000081526004016108c190612de8565b60405180910390fd5b8181600791906108db9291906121d4565b505050565b6000806002600084815260200190815260200160002060009054906101000a900473ffffffffffffffffffffffffffffffffffffffff169050600073ffffffffffffffffffffffffffffffffffffffff168173ffffffffffffffffffffffffffffffffffffffff161415610989576040517f08c379a000000000000000000000000000000000000000000000000000000000815260040161098090612d88565b60405180910390fd5b80915050919050565b61099a6114b7565b73ffffffffffffffffffffffffffffffffffffffff166109b8610c92565b73ffffffffffffffffffffffffffffffffffffffff1614610a0e576040517f08c379a0000000000000000000000000000000000000000000000000000000008152600401610a0590612de8565b60405180910390fd5b6001600a60006101000a81548160ff021916908315150217905550565b60078054610a38906130ec565b80601f0160208091040260200160405190810160405280929190818152602001828054610a64906130ec565b8015610ab15780601f10610a8657610100808354040283529160200191610ab1565b820191906000526020600020905b815481529060010190602001808311610a9457829003601f168201915b505050505081565b60008073ffffffffffffffffffffffffffffffffffffffff168273ffffffffffffffffffffffffffffffffffffffff161415610b2a576040517f08c379a0000000000000000000000000000000000000000000000000000000008152600401610b2190612d68565b60405180910390fd5b600360008373ffffffffffffffffffffffffffffffffffffffff1673ffffffffffffffffffffffffffffffffffffffff168152602001908152602001600020549050919050565b610b796114b7565b73ffffffffffffffffffffffffffffffffffffffff16610b97610c92565b73ffffffffffffffffffffffffffffffffffffffff1614610bed576040517f08c379a0000000000000000000000000000000000000000000000000000000008152600401610be490612de8565b60405180910390fd5b610bf760006118b2565b565b610c016114b7565b73ffffffffffffffffffffffffffffffffffffffff16610c1f610c92565b73ffffffffffffffffffffffffffffffffffffffff1614610c75576040517f08c379a0000000000000000000000000000000000000000000000000000000008152600401610c6c90612de8565b60405180910390fd5b6000600a60006101000a81548160ff021916908315150217905550565b6000600660009054906101000a900473ffffffffffffffffffffffffffffffffffffffff16905090565b600a60009054906101000a900460ff1681565b60085481565b606060018054610ce4906130ec565b80601f0160208091040260200160405190810160405280929190818152602001828054610d10906130ec565b8015610d5d5780601f10610d3257610100808354040283529160200191610d5d565b820191906000526020600020905b815481529060010190602001808311610d4057829003601f168201915b5050505050905090565b610d79610d726114b7565b8383611978565b5050565b60096020528060005260406000206000915054906101000a900460ff1681565b610da56114b7565b828280806020026020016040519081016040528093929190818152602001838360200280828437600081840152601f19601f82011690508083019250505050505050610e38817f000000000000000000000000000000000000000000000000000000000000000084604051602001610e1d9190612af3565b60405160208183030381529060405280519060200120611ae5565b610e77576040517f08c379a0000000000000000000000000000000000000000000000000000000008152600401610e6e90612e08565b60405180910390fd5b600a60009054906101000a900460ff16610ec6576040517f08c379a0000000000000000000000000000000000000000000000000000000008152600401610ebd90612c68565b60405180910390fd5b60096000610ed26114b7565b73ffffffffffffffffffffffffffffffffffffffff1673ffffffffffffffffffffffffffffffffffffffff16815260200190815260200160002060009054906101000a900460ff1615610f5a576040517f08c379a0000000000000000000000000000000000000000000000000000000008152600401610f5190612c28565b60405180910390fd5b3273ffffffffffffffffffffffffffffffffffffffff16610f796114b7565b73ffffffffffffffffffffffffffffffffffffffff1614610fcf576040517f08c379a0000000000000000000000000000000000000000000000000000000008152600401610fc690612c48565b60405180910390fd5b600160096000610fdd6114b7565b73ffffffffffffffffffffffffffffffffffffffff1673ffffffffffffffffffffffffffffffffffffffff16815260200190815260200160002060006101000a81548160ff0219169083151502179055506110556110396114b7565b6008600081548092919061104c9061314f565b91905055611afc565b50505050565b61106c6110666114b7565b83611578565b6110ab576040517f08c379a00000000000000000000000000000000000000000000000000000000081526004016110a290612e88565b60405180910390fd5b6110b784848484611b1a565b50505050565b60606110c88261144b565b611107576040517f08c379a00000000000000000000000000000000000000000000000000000000081526004016110fe90612e48565b60405180910390fd5b600060078054611116906130ec565b905011611132576040518060200160405280600081525061115e565b600761113d83611b76565b60405160200161114e929190612b3a565b6040516020818303038152906040525b9050919050565b61116d6114b7565b73ffffffffffffffffffffffffffffffffffffffff1661118b610c92565b73ffffffffffffffffffffffffffffffffffffffff16146111e1576040517f08c379a00000000000000000000000000000000000000000000000000000000081526004016111d890612de8565b60405180910390fd5b6111e96114b7565b73ffffffffffffffffffffffffffffffffffffffff166108fc479081150290604051600060405180830381858888f1935050505015801561122e573d6000803e3d6000fd5b50565b6000600560008473ffffffffffffffffffffffffffffffffffffffff1673ffffffffffffffffffffffffffffffffffffffff16815260200190815260200160002060008373ffffffffffffffffffffffffffffffffffffffff1673ffffffffffffffffffffffffffffffffffffffff16815260200190815260200160002060009054906101000a900460ff16905092915050565b7f000000000000000000000000000000000000000000000000000000000000000081565b6112f16114b7565b73ffffffffffffffffffffffffffffffffffffffff1661130f610c92565b73ffffffffffffffffffffffffffffffffffffffff1614611365576040517f08c379a000000000000000000000000000000000000000000000000000000000815260040161135c90612de8565b60405180910390fd5b600073ffffffffffffffffffffffffffffffffffffffff168173ffffffffffffffffffffffffffffffffffffffff1614156113d5576040517f08c379a00000000000000000000000000000000000000000000000000000000081526004016113cc90612ca8565b60405180910390fd5b6113de816118b2565b50565b60007f01ffc9a7000000000000000000000000000000000000000000000000000000007bffffffffffffffffffffffffffffffffffffffffffffffffffffffff1916827bffffffffffffffffffffffffffffffffffffffffffffffffffffffff1916149050919050565b60008073ffffffffffffffffffffffffffffffffffffffff166002600084815260200190815260200160002060009054906101000a900473ffffffffffffffffffffffffffffffffffffffff1673ffffffffffffffffffffffffffffffffffffffff1614159050919050565b600033905090565b816004600083815260200190815260200160002060006101000a81548173ffffffffffffffffffffffffffffffffffffffff021916908373ffffffffffffffffffffffffffffffffffffffff160217905550808273ffffffffffffffffffffffffffffffffffffffff16611532836108e0565b73ffffffffffffffffffffffffffffffffffffffff167f8c5be1e5ebec7d5bd14f71427d1e84f3dd0314c0f7b2291e5b200ac8c7c3b92560405160405180910390a45050565b60006115838261144b565b6115c2576040517f08c379a00000000000000000000000000000000000000000000000000000000081526004016115b990612d28565b60405180910390fd5b60006115cd836108e0565b90508073ffffffffffffffffffffffffffffffffffffffff168473ffffffffffffffffffffffffffffffffffffffff16148061163c57508373ffffffffffffffffffffffffffffffffffffffff1661162484610631565b73ffffffffffffffffffffffffffffffffffffffff16145b8061164d575061164c8185611231565b5b91505092915050565b8273ffffffffffffffffffffffffffffffffffffffff16611676826108e0565b73ffffffffffffffffffffffffffffffffffffffff16146116cc576040517f08c379a00000000000000000000000000000000000000000000000000000000081526004016116c390612e28565b60405180910390fd5b600073ffffffffffffffffffffffffffffffffffffffff168273ffffffffffffffffffffffffffffffffffffffff16141561173c576040517f08c379a000000000000000000000000000000000000000000000000000000000815260040161173390612ce8565b60405180910390fd5b611747838383611d23565b6117526000826114bf565b6001600360008573ffffffffffffffffffffffffffffffffffffffff1673ffffffffffffffffffffffffffffffffffffffff16815260200190815260200160002060008282546117a29190612ff8565b925050819055506001600360008473ffffffffffffffffffffffffffffffffffffffff1673ffffffffffffffffffffffffffffffffffffffff16815260200190815260200160002060008282546117f99190612f71565b92505081905550816002600083815260200190815260200160002060006101000a81548173ffffffffffffffffffffffffffffffffffffffff021916908373ffffffffffffffffffffffffffffffffffffffff160217905550808273ffffffffffffffffffffffffffffffffffffffff168473ffffffffffffffffffffffffffffffffffffffff167fddf252ad1be2c89b69c2b068fc378daa952ba7f163c4a11628f55a4df523b3ef60405160405180910390a4505050565b6000600660009054906101000a900473ffffffffffffffffffffffffffffffffffffffff16905081600660006101000a81548173ffffffffffffffffffffffffffffffffffffffff021916908373ffffffffffffffffffffffffffffffffffffffff1602179055508173ffffffffffffffffffffffffffffffffffffffff168173ffffffffffffffffffffffffffffffffffffffff167f8be0079c531659141344cd1fd0a4f28419497f9722a3daafe3b4186f6b6457e060405160405180910390a35050565b8173ffffffffffffffffffffffffffffffffffffffff168373ffffffffffffffffffffffffffffffffffffffff1614156119e7576040517f08c379a00000000000000000000000000000000000000000000000000000000081526004016119de90612d08565b60405180910390fd5b80600560008573ffffffffffffffffffffffffffffffffffffffff1673ffffffffffffffffffffffffffffffffffffffff16815260200190815260200160002060008473ffffffffffffffffffffffffffffffffffffffff1673ffffffffffffffffffffffffffffffffffffffff16815260200190815260200160002060006101000a81548160ff0219169083151502179055508173ffffffffffffffffffffffffffffffffffffffff168373ffffffffffffffffffffffffffffffffffffffff167f17307eab39ab6107e8899845ad3d59bd9653f200f220920489ca2b5937696c3183604051611ad89190612bd0565b60405180910390a3505050565b600082611af28584611d28565b1490509392505050565b611b16828260405180602001604052806000815250611e01565b5050565b611b25848484611656565b611b3184848484611e5c565b611b70576040517f08c379a0000000000000000000000000000000000000000000000000000000008152600401611b6790612c88565b60405180910390fd5b50505050565b60606000821415611bbe576040518060400160405280600181526020017f30000000000000000000000000000000000000000000000000000000000000008152509050611d1e565b600082905060005b60008214611bf0578080611bd99061314f565b915050600a82611be99190612fc7565b9150611bc6565b60008167ffffffffffffffff811115611c32577f4e487b7100000000000000000000000000000000000000000000000000000000600052604160045260246000fd5b6040519080825280601f01601f191660200182016040528015611c645781602001600182028036833780820191505090505b5090505b60008514611d1757600182611c7d9190612ff8565b9150600a85611c8c91906131c6565b6030611c989190612f71565b60f81b818381518110611cd4577f4e487b7100000000000000000000000000000000000000000000000000000000600052603260045260246000fd5b60200101907effffffffffffffffffffffffffffffffffffffffffffffffffffffffffffff1916908160001a905350600a85611d109190612fc7565b9450611c68565b8093505050505b919050565b505050565b60008082905060005b8451811015611df6576000858281518110611d75577f4e487b7100000000000000000000000000000000000000000000000000000000600052603260045260246000fd5b60200260200101519050808311611db6578281604051602001611d99929190612b0e565b604051602081830303815290604052805190602001209250611de2565b8083604051602001611dc9929190612b0e565b6040516020818303038152906040528051906020012092505b508080611dee9061314f565b915050611d31565b508091505092915050565b611e0b8383611ff3565b611e186000848484611e5c565b611e57576040517f08c379a0000000000000000000000000000000000000000000000000000000008152600401611e4e90612c88565b60405180910390fd5b505050565b6000611e7d8473ffffffffffffffffffffffffffffffffffffffff166121c1565b15611fe6578373ffffffffffffffffffffffffffffffffffffffff1663150b7a02611ea66114b7565b8786866040518563ffffffff1660e01b8152600401611ec89493929190612b84565b602060405180830381600087803b158015611ee257600080fd5b505af1925050508015611f1357506040513d601f19601f82011682018060405250810190611f1091906125f1565b60015b611f96573d8060008114611f43576040519150601f19603f3d011682016040523d82523d6000602084013e611f48565b606091505b50600081511415611f8e576040517f08c379a0000000000000000000000000000000000000000000000000000000008152600401611f8590612c88565b60405180910390fd5b805181602001fd5b63150b7a0260e01b7bffffffffffffffffffffffffffffffffffffffffffffffffffffffff1916817bffffffffffffffffffffffffffffffffffffffffffffffffffffffff191614915050611feb565b600190505b949350505050565b600073ffffffffffffffffffffffffffffffffffffffff168273ffffffffffffffffffffffffffffffffffffffff161415612063576040517f08c379a000000000000000000000000000000000000000000000000000000000815260040161205a90612da8565b60405180910390fd5b61206c8161144b565b156120ac576040517f08c379a00000000000000000000000000000000000000000000000000000000081526004016120a390612cc8565b60405180910390fd5b6120b860008383611d23565b6001600360008473ffffffffffffffffffffffffffffffffffffffff1673ffffffffffffffffffffffffffffffffffffffff16815260200190815260200160002060008282546121089190612f71565b92505081905550816002600083815260200190815260200160002060006101000a81548173ffffffffffffffffffffffffffffffffffffffff021916908373ffffffffffffffffffffffffffffffffffffffff160217905550808273ffffffffffffffffffffffffffffffffffffffff16600073ffffffffffffffffffffffffffffffffffffffff167fddf252ad1be2c89b69c2b068fc378daa952ba7f163c4a11628f55a4df523b3ef60405160405180910390a45050565b600080823b905060008111915050919050565b8280546121e0906130ec565b90600052602060002090601f0160209004810192826122025760008555612249565b82601f1061221b57803560ff1916838001178555612249565b82800160010185558215612249579182015b8281111561224857823582559160200191906001019061222d565b5b509050612256919061225a565b5090565b5b8082111561227357600081600090555060010161225b565b5090565b600061228a61228584612ee8565b612ec3565b9050828152602081018484840111156122a257600080fd5b6122ad8482856130aa565b509392505050565b6000813590506122c4816137f6565b92915050565b60008083601f8401126122dc57600080fd5b8235905067ffffffffffffffff8111156122f557600080fd5b60208301915083602082028301111561230d57600080fd5b9250929050565b6000813590506123238161380d565b92915050565b60008135905061233881613824565b92915050565b60008151905061234d81613824565b92915050565b600082601f83011261236457600080fd5b8135612374848260208601612277565b91505092915050565b60008083601f84011261238f57600080fd5b8235905067ffffffffffffffff8111156123a857600080fd5b6020830191508360018202830111156123c057600080fd5b9250929050565b6000813590506123d68161383b565b92915050565b6000602082840312156123ee57600080fd5b60006123fc848285016122b5565b91505092915050565b6000806040838503121561241857600080fd5b6000612426858286016122b5565b9250506020612437858286016122b5565b9150509250929050565b60008060006060848603121561245657600080fd5b6000612464868287016122b5565b9350506020612475868287016122b5565b9250506040612486868287016123c7565b9150509250925092565b600080600080608085870312156124a657600080fd5b60006124b4878288016122b5565b94505060206124c5878288016122b5565b93505060406124d6878288016123c7565b925050606085013567ffffffffffffffff8111156124f357600080fd5b6124ff87828801612353565b91505092959194509250565b6000806040838503121561251e57600080fd5b600061252c858286016122b5565b925050602061253d85828601612314565b9150509250929050565b6000806040838503121561255a57600080fd5b6000612568858286016122b5565b9250506020612579858286016123c7565b9150509250929050565b6000806020838503121561259657600080fd5b600083013567ffffffffffffffff8111156125b057600080fd5b6125bc858286016122ca565b92509250509250929050565b6000602082840312156125da57600080fd5b60006125e884828501612329565b91505092915050565b60006020828403121561260357600080fd5b60006126118482850161233e565b91505092915050565b6000806020838503121561262d57600080fd5b600083013567ffffffffffffffff81111561264757600080fd5b6126538582860161237d565b92509250509250929050565b60006020828403121561267157600080fd5b600061267f848285016123c7565b91505092915050565b6126918161302c565b82525050565b6126a86126a38261302c565b613198565b82525050565b6126b78161303e565b82525050565b6126c68161304a565b82525050565b6126dd6126d88261304a565b6131aa565b82525050565b60006126ee82612f2e565b6126f88185612f44565b93506127088185602086016130b9565b612711816132b3565b840191505092915050565b600061272782612f39565b6127318185612f55565b93506127418185602086016130b9565b61274a816132b3565b840191505092915050565b600061276082612f39565b61276a8185612f66565b935061277a8185602086016130b9565b80840191505092915050565b60008154612793816130ec565b61279d8186612f66565b945060018216600081146127b857600181146127c9576127fc565b60ff198316865281860193506127fc565b6127d285612f19565b60005b838110156127f4578154818901526001820191506020810190506127d5565b838801955050505b50505092915050565b6000612812600e83612f55565b915061281d826132d1565b602082019050919050565b6000612835601083612f55565b9150612840826132fa565b602082019050919050565b6000612858600e83612f55565b915061286382613323565b602082019050919050565b600061287b603283612f55565b91506128868261334c565b604082019050919050565b600061289e602683612f55565b91506128a98261339b565b604082019050919050565b60006128c1601c83612f55565b91506128cc826133ea565b602082019050919050565b60006128e4602483612f55565b91506128ef82613413565b604082019050919050565b6000612907601983612f55565b915061291282613462565b602082019050919050565b600061292a602c83612f55565b91506129358261348b565b604082019050919050565b600061294d603883612f55565b9150612958826134da565b604082019050919050565b6000612970602a83612f55565b915061297b82613529565b604082019050919050565b6000612993602983612f55565b915061299e82613578565b604082019050919050565b60006129b6602083612f55565b91506129c1826135c7565b602082019050919050565b60006129d9602c83612f55565b91506129e4826135f0565b604082019050919050565b60006129fc600583612f66565b9150612a078261363f565b600582019050919050565b6000612a1f602083612f55565b9150612a2a82613668565b602082019050919050565b6000612a42601483612f55565b9150612a4d82613691565b602082019050919050565b6000612a65602983612f55565b9150612a70826136ba565b604082019050919050565b6000612a88602f83612f55565b9150612a9382613709565b604082019050919050565b6000612aab602183612f55565b9150612ab682613758565b604082019050919050565b6000612ace603183612f55565b9150612ad9826137a7565b604082019050919050565b612aed816130a0565b82525050565b6000612aff8284612697565b60148201915081905092915050565b6000612b1a82856126cc565b602082019150612b2a82846126cc565b6020820191508190509392505050565b6000612b468285612786565b9150612b528284612755565b9150612b5d826129ef565b91508190509392505050565b6000602082019050612b7e6000830184612688565b92915050565b6000608082019050612b996000830187612688565b612ba66020830186612688565b612bb36040830185612ae4565b8181036060830152612bc581846126e3565b905095945050505050565b6000602082019050612be560008301846126ae565b92915050565b6000602082019050612c0060008301846126bd565b92915050565b60006020820190508181036000830152612c20818461271c565b905092915050565b60006020820190508181036000830152612c4181612805565b9050919050565b60006020820190508181036000830152612c6181612828565b9050919050565b60006020820190508181036000830152612c818161284b565b9050919050565b60006020820190508181036000830152612ca18161286e565b9050919050565b60006020820190508181036000830152612cc181612891565b9050919050565b60006020820190508181036000830152612ce1816128b4565b9050919050565b60006020820190508181036000830152612d01816128d7565b9050919050565b60006020820190508181036000830152612d21816128fa565b9050919050565b60006020820190508181036000830152612d418161291d565b9050919050565b60006020820190508181036000830152612d6181612940565b9050919050565b60006020820190508181036000830152612d8181612963565b9050919050565b60006020820190508181036000830152612da181612986565b9050919050565b60006020820190508181036000830152612dc1816129a9565b9050919050565b60006020820190508181036000830152612de1816129cc565b9050919050565b60006020820190508181036000830152612e0181612a12565b9050919050565b60006020820190508181036000830152612e2181612a35565b9050919050565b60006020820190508181036000830152612e4181612a58565b9050919050565b60006020820190508181036000830152612e6181612a7b565b9050919050565b60006020820190508181036000830152612e8181612a9e565b9050919050565b60006020820190508181036000830152612ea181612ac1565b9050919050565b6000602082019050612ebd6000830184612ae4565b92915050565b6000612ecd612ede565b9050612ed9828261311e565b919050565b6000604051905090565b600067ffffffffffffffff821115612f0357612f02613284565b5b612f0c826132b3565b9050602081019050919050565b60008190508160005260206000209050919050565b600081519050919050565b600081519050919050565b600082825260208201905092915050565b600082825260208201905092915050565b600081905092915050565b6000612f7c826130a0565b9150612f87836130a0565b9250827fffffffffffffffffffffffffffffffffffffffffffffffffffffffffffffffff03821115612fbc57612fbb6131f7565b5b828201905092915050565b6000612fd2826130a0565b9150612fdd836130a0565b925082612fed57612fec613226565b5b828204905092915050565b6000613003826130a0565b915061300e836130a0565b925082821015613021576130206131f7565b5b828203905092915050565b600061303782613080565b9050919050565b60008115159050919050565b6000819050919050565b60007fffffffff0000000000000000000000000000000000000000000000000000000082169050919050565b600073ffffffffffffffffffffffffffffffffffffffff82169050919050565b6000819050919050565b82818337600083830152505050565b60005b838110156130d75780820151818401526020810190506130bc565b838111156130e6576000848401525b50505050565b6000600282049050600182168061310457607f821691505b6020821081141561311857613117613255565b5b50919050565b613127826132b3565b810181811067ffffffffffffffff8211171561314657613145613284565b5b80604052505050565b600061315a826130a0565b91507fffffffffffffffffffffffffffffffffffffffffffffffffffffffffffffffff82141561318d5761318c6131f7565b5b600182019050919050565b60006131a3826131b4565b9050919050565b6000819050919050565b60006131bf826132c4565b9050919050565b60006131d1826130a0565b91506131dc836130a0565b9250826131ec576131eb613226565b5b828206905092915050565b7f4e487b7100000000000000000000000000000000000000000000000000000000600052601160045260246000fd5b7f4e487b7100000000000000000000000000000000000000000000000000000000600052601260045260246000fd5b7f4e487b7100000000000000000000000000000000000000000000000000000000600052602260045260246000fd5b7f4e487b7100000000000000000000000000000000000000000000000000000000600052604160045260246000fd5b6000601f19601f8301169050919050565b60008160601b9050919050565b7f416c7265616479206d696e746564000000000000000000000000000000000000600082015250565b7f646f6e742067657420736576656e656400000000000000000000000000000000600082015250565b7f4d696e74696e6720636c6f736564000000000000000000000000000000000000600082015250565b7f4552433732313a207472616e7366657220746f206e6f6e20455243373231526560008201527f63656976657220696d706c656d656e7465720000000000000000000000000000602082015250565b7f4f776e61626c653a206e6577206f776e657220697320746865207a65726f206160008201527f6464726573730000000000000000000000000000000000000000000000000000602082015250565b7f4552433732313a20746f6b656e20616c7265616479206d696e74656400000000600082015250565b7f4552433732313a207472616e7366657220746f20746865207a65726f2061646460008201527f7265737300000000000000000000000000000000000000000000000000000000602082015250565b7f4552433732313a20617070726f766520746f2063616c6c657200000000000000600082015250565b7f4552433732313a206f70657261746f7220717565727920666f72206e6f6e657860008201527f697374656e7420746f6b656e0000000000000000000000000000000000000000602082015250565b7f4552433732313a20617070726f76652063616c6c6572206973206e6f74206f7760008201527f6e6572206e6f7220617070726f76656420666f7220616c6c0000000000000000602082015250565b7f4552433732313a2062616c616e636520717565727920666f7220746865207a6560008201527f726f206164647265737300000000000000000000000000000000000000000000602082015250565b7f4552433732313a206f776e657220717565727920666f72206e6f6e657869737460008201527f656e7420746f6b656e0000000000000000000000000000000000000000000000602082015250565b7f4552433732313a206d696e7420746f20746865207a65726f2061646472657373600082015250565b7f4552433732313a20617070726f76656420717565727920666f72206e6f6e657860008201527f697374656e7420746f6b656e0000000000000000000000000000000000000000602082015250565b7f2e6a736f6e000000000000000000000000000000000000000000000000000000600082015250565b7f4f776e61626c653a2063616c6c6572206973206e6f7420746865206f776e6572600082015250565b7f496e76616c6964206d65726b6c652070726f6f66000000000000000000000000600082015250565b7f4552433732313a207472616e73666572206f6620746f6b656e2074686174206960008201527f73206e6f74206f776e0000000000000000000000000000000000000000000000602082015250565b7f4552433732314d657461646174613a2055524920717565727920666f72206e6f60008201527f6e6578697374656e7420746f6b656e0000000000000000000000000000000000602082015250565b7f4552433732313a20617070726f76616c20746f2063757272656e74206f776e6560008201527f7200000000000000000000000000000000000000000000000000000000000000602082015250565b7f4552433732313a207472616e736665722063616c6c6572206973206e6f74206f60008201527f776e6572206e6f7220617070726f766564000000000000000000000000000000602082015250565b6137ff8161302c565b811461380a57600080fd5b50565b6138168161303e565b811461382157600080fd5b50565b61382d81613054565b811461383857600080fd5b50565b613844816130a0565b811461384f57600080fd5b5056fea26469706673582212200e30d02ae66e3117288fd4cc3cf867a24cd42af35ff6e26dbe232b2405120f3864736f6c63430008040033",
    "linkReferences": {},
    "deployedLinkReferences": {}
}