{
  "abi": [
    {
      "inputs": [
        {
          "internalType": "bytes32",
          "name": "_root",
          "type": "bytes32"
        },
        {
          "internalType": "string",
          "name": "_baseURI",
          "type": "string"
        },
        {
          "internalType": "address",
          "name": "_royaltyWallet",
          "type": "address"
        }
      ],
      "stateMutability": "nonpayable",
      "type": "constructor"
    },
    {
      "anonymous": false,
      "inputs": [
        {
          "indexed": true,
          "internalType": "address",
          "name": "owner",
          "type": "address"
        },
        {
          "indexed": true,
          "internalType": "address",
          "name": "approved",
          "type": "address"
        },
        {
          "indexed": true,
          "internalType": "uint256",
          "name": "tokenId",
          "type": "uint256"
        }
      ],
      "name": "Approval",
      "type": "event"
    },
    {
      "anonymous": false,
      "inputs": [
        {
          "indexed": true,
          "internalType": "address",
          "name": "owner",
          "type": "address"
        },
        {
          "indexed": true,
          "internalType": "address",
          "name": "operator",
          "type": "address"
        },
        {
          "indexed": false,
          "internalType": "bool",
          "name": "approved",
          "type": "bool"
        }
      ],
      "name": "ApprovalForAll",
      "type": "event"
    },
    {
      "anonymous": false,
      "inputs": [
        {
          "indexed": true,
          "internalType": "address",
          "name": "previousOwner",
          "type": "address"
        },
        {
          "indexed": true,
          "internalType": "address",
          "name": "newOwner",
          "type": "address"
        }
      ],
      "name": "OwnershipTransferred",
      "type": "event"
    },
    {
      "anonymous": false,
      "inputs": [
        {
          "indexed": true,
          "internalType": "address",
          "name": "from",
          "type": "address"
        },
        {
          "indexed": true,
          "internalType": "address",
          "name": "to",
          "type": "address"
        },
        {
          "indexed": true,
          "internalType": "uint256",
          "name": "tokenId",
          "type": "uint256"
        }
      ],
      "name": "Transfer",
      "type": "event"
    },
    {
      "inputs": [],
      "name": "PRICE",
      "outputs": [
        {
          "internalType": "uint256",
          "name": "",
          "type": "uint256"
        }
      ],
      "stateMutability": "view",
      "type": "function"
    },
    {
      "inputs": [
        {
          "internalType": "address",
          "name": "to",
          "type": "address"
        },
        {
          "internalType": "uint256",
          "name": "tokenId",
          "type": "uint256"
        }
      ],
      "name": "approve",
      "outputs": [],
      "stateMutability": "nonpayable",
      "type": "function"
    },
    {
      "inputs": [
        {
          "internalType": "address",
          "name": "owner",
          "type": "address"
        }
      ],
      "name": "balanceOf",
      "outputs": [
        {
          "internalType": "uint256",
          "name": "",
          "type": "uint256"
        }
      ],
      "stateMutability": "view",
      "type": "function"
    },
    {
      "inputs": [],
      "name": "closeMinting",
      "outputs": [],
      "stateMutability": "nonpayable",
      "type": "function"
    },
    {
      "inputs": [
        {
          "internalType": "uint256",
          "name": "tokenId",
          "type": "uint256"
        }
      ],
      "name": "getApproved",
      "outputs": [
        {
          "internalType": "address",
          "name": "",
          "type": "address"
        }
      ],
      "stateMutability": "view",
      "type": "function"
    },
    {
      "inputs": [],
      "name": "getMintStatus",
      "outputs": [
        {
          "internalType": "enum BenMezrichProject3.MintStatus",
          "name": "",
          "type": "uint8"
        }
      ],
      "stateMutability": "view",
      "type": "function"
    },
    {
      "inputs": [
        {
          "internalType": "address",
          "name": "owner",
          "type": "address"
        },
        {
          "internalType": "address",
          "name": "operator",
          "type": "address"
        }
      ],
      "name": "isApprovedForAll",
      "outputs": [
        {
          "internalType": "bool",
          "name": "",
          "type": "bool"
        }
      ],
      "stateMutability": "view",
      "type": "function"
    },
    {
      "inputs": [],
      "name": "name",
      "outputs": [
        {
          "internalType": "string",
          "name": "",
          "type": "string"
        }
      ],
      "stateMutability": "view",
      "type": "function"
    },
    {
      "inputs": [],
      "name": "openPublic",
      "outputs": [],
      "stateMutability": "nonpayable",
      "type": "function"
    },
    {
      "inputs": [],
      "name": "openWhitelist",
      "outputs": [],
      "stateMutability": "nonpayable",
      "type": "function"
    },
    {
      "inputs": [],
      "name": "owner",
      "outputs": [
        {
          "internalType": "address",
          "name": "",
          "type": "address"
        }
      ],
      "stateMutability": "view",
      "type": "function"
    },
    {
      "inputs": [
        {
          "internalType": "uint256",
          "name": "tokenId",
          "type": "uint256"
        }
      ],
      "name": "ownerOf",
      "outputs": [
        {
          "internalType": "address",
          "name": "",
          "type": "address"
        }
      ],
      "stateMutability": "view",
      "type": "function"
    },
    {
      "inputs": [
        {
          "internalType": "uint256",
          "name": "quantity",
          "type": "uint256"
        }
      ],
      "name": "publicMint",
      "outputs": [],
      "stateMutability": "payable",
      "type": "function"
    },
    {
      "inputs": [],
      "name": "renounceOwnership",
      "outputs": [],
      "stateMutability": "nonpayable",
      "type": "function"
    },
    {
      "inputs": [
        {
          "internalType": "uint256",
          "name": "_tokenId",
          "type": "uint256"
        },
        {
          "internalType": "uint256",
          "name": "_salePrice",
          "type": "uint256"
        }
      ],
      "name": "royaltyInfo",
      "outputs": [
        {
          "internalType": "address",
          "name": "receiver",
          "type": "address"
        },
        {
          "internalType": "uint256",
          "name": "royaltyAmount",
          "type": "uint256"
        }
      ],
      "stateMutability": "view",
      "type": "function"
    },
    {
      "inputs": [
        {
          "internalType": "address",
          "name": "from",
          "type": "address"
        },
        {
          "internalType": "address",
          "name": "to",
          "type": "address"
        },
        {
          "internalType": "uint256",
          "name": "tokenId",
          "type": "uint256"
        }
      ],
      "name": "safeTransferFrom",
      "outputs": [],
      "stateMutability": "nonpayable",
      "type": "function"
    },
    {
      "inputs": [
        {
          "internalType": "address",
          "name": "from",
          "type": "address"
        },
        {
          "internalType": "address",
          "name": "to",
          "type": "address"
        },
        {
          "internalType": "uint256",
          "name": "tokenId",
          "type": "uint256"
        },
        {
          "internalType": "bytes",
          "name": "data",
          "type": "bytes"
        }
      ],
      "name": "safeTransferFrom",
      "outputs": [],
      "stateMutability": "nonpayable",
      "type": "function"
    },
    {
      "inputs": [
        {
          "internalType": "address",
          "name": "operator",
          "type": "address"
        },
        {
          "internalType": "bool",
          "name": "approved",
          "type": "bool"
        }
      ],
      "name": "setApprovalForAll",
      "outputs": [],
      "stateMutability": "nonpayable",
      "type": "function"
    },
    {
      "inputs": [
        {
          "internalType": "string",
          "name": "_newBaseURI",
          "type": "string"
        }
      ],
      "name": "setBaseURI",
      "outputs": [],
      "stateMutability": "nonpayable",
      "type": "function"
    },
    {
      "inputs": [
        {
          "internalType": "bytes4",
          "name": "interfaceId",
          "type": "bytes4"
        }
      ],
      "name": "supportsInterface",
      "outputs": [
        {
          "internalType": "bool",
          "name": "",
          "type": "bool"
        }
      ],
      "stateMutability": "view",
      "type": "function"
    },
    {
      "inputs": [],
      "name": "symbol",
      "outputs": [
        {
          "internalType": "string",
          "name": "",
          "type": "string"
        }
      ],
      "stateMutability": "view",
      "type": "function"
    },
    {
      "inputs": [
        {
          "internalType": "uint256",
          "name": "tokenId",
          "type": "uint256"
        }
      ],
      "name": "tokenURI",
      "outputs": [
        {
          "internalType": "string",
          "name": "",
          "type": "string"
        }
      ],
      "stateMutability": "view",
      "type": "function"
    },
    {
      "inputs": [
        {
          "internalType": "address",
          "name": "from",
          "type": "address"
        },
        {
          "internalType": "address",
          "name": "to",
          "type": "address"
        },
        {
          "internalType": "uint256",
          "name": "tokenId",
          "type": "uint256"
        }
      ],
      "name": "transferFrom",
      "outputs": [],
      "stateMutability": "nonpayable",
      "type": "function"
    },
    {
      "inputs": [
        {
          "internalType": "address",
          "name": "newOwner",
          "type": "address"
        }
      ],
      "name": "transferOwnership",
      "outputs": [],
      "stateMutability": "nonpayable",
      "type": "function"
    },
    {
      "inputs": [
        {
          "internalType": "bytes32",
          "name": "newRoot",
          "type": "bytes32"
        }
      ],
      "name": "updateRoot",
      "outputs": [],
      "stateMutability": "nonpayable",
      "type": "function"
    },
    {
      "inputs": [
        {
          "internalType": "uint256",
          "name": "_rate",
          "type": "uint256"
        }
      ],
      "name": "updateRoyaltyRate",
      "outputs": [],
      "stateMutability": "nonpayable",
      "type": "function"
    },
    {
      "inputs": [
        {
          "internalType": "address payable",
          "name": "_wallet",
          "type": "address"
        }
      ],
      "name": "updateRoyaltyWallet",
      "outputs": [],
      "stateMutability": "nonpayable",
      "type": "function"
    },
    {
      "inputs": [
        {
          "internalType": "bytes32[]",
          "name": "proof",
          "type": "bytes32[]"
        },
        {
          "internalType": "uint256",
          "name": "quantity",
          "type": "uint256"
        }
      ],
      "name": "whitelistMint",
      "outputs": [],
      "stateMutability": "payable",
      "type": "function"
    },
    {
      "inputs": [],
      "name": "withdraw",
      "outputs": [],
      "stateMutability": "nonpayable",
      "type": "function"
    },
    {
      "inputs": [
        {
          "internalType": "address",
          "name": "token",
          "type": "address"
        }
      ],
      "name": "withdrawToken",
      "outputs": [],
      "stateMutability": "nonpayable",
      "type": "function"
    }
  ],
  "bytecode": {
    "object": "0x6080604052611770600755611d4c600d553480156200001d57600080fd5b50604051620024a2380380620024a2833981016040819052620000409162000249565b604080518082018252601581527f42656e204d657a726963682050726f6a6563742033000000000000000000000060208083019182528351808501909452600684526542454e46543360d01b908401528151919291620000a39160009162000170565b508051620000b990600190602084019062000170565b505050620000d6620000d06200011a60201b60201c565b6200011e565b60098390558151620000f090600a90602085019062000170565b50600e80546001600160a01b0319166001600160a01b039290921691909117905550620003819050565b3390565b600680546001600160a01b038381166001600160a01b0319831681179093556040519116919082907f8be0079c531659141344cd1fd0a4f28419497f9722a3daafe3b4186f6b6457e090600090a35050565b8280546200017e9062000345565b90600052602060002090601f016020900481019282620001a25760008555620001ed565b82601f10620001bd57805160ff1916838001178555620001ed565b82800160010185558215620001ed579182015b82811115620001ed578251825591602001919060010190620001d0565b50620001fb929150620001ff565b5090565b5b80821115620001fb576000815560010162000200565b634e487b7160e01b600052604160045260246000fd5b80516001600160a01b03811681146200024457600080fd5b919050565b6000806000606084860312156200025f57600080fd5b8351602080860151919450906001600160401b03808211156200028157600080fd5b818701915087601f8301126200029657600080fd5b815181811115620002ab57620002ab62000216565b604051601f8201601f19908116603f01168101908382118183101715620002d657620002d662000216565b816040528281528a86848701011115620002ef57600080fd5b600093505b82841015620003135784840186015181850187015292850192620002f4565b82841115620003255760008684830101525b8097505050505050506200033c604085016200022c565b90509250925092565b600181811c908216806200035a57607f821691505b6020821081036200037b57634e487b7160e01b600052602260045260246000fd5b50919050565b61211180620003916000396000f3fe6080604052600436106101cd5760003560e01c80636352211e116100f7578063941ada0e11610095578063c87b56dd11610064578063c87b56dd1461050d578063e1ee5c831461052d578063e985e9c51461054d578063f2fde38b1461059657600080fd5b8063941ada0e1461049857806395d89b41146104b8578063a22cb465146104cd578063b88d4fde146104ed57600080fd5b806387491c60116100d157806387491c601461042a578063894760691461043f5780638d859f3e1461045f5780638da5cb5b1461047a57600080fd5b80636352211e146103c757806370a08231146103e7578063715018a61461041557600080fd5b8063268247d91161016f5780633ccfd60b1161013e5780633ccfd60b1461035d5780633fc800061461037257806342842e0e1461038757806355f804b3146103a757600080fd5b8063268247d9146102d85780632904e6d9146102f85780632a55205a1461030b5780632db115441461034a57600080fd5b8063083bbe7f116101ab578063083bbe7f14610261578063095ea7b31461027857806321ff99701461029857806323b872dd146102b857600080fd5b806301ffc9a7146101d257806306fdde0314610207578063081812fc14610229575b600080fd5b3480156101de57600080fd5b506101f26101ed3660046119d2565b6105b6565b60405190151581526020015b60405180910390f35b34801561021357600080fd5b5061021c610608565b6040516101fe9190611a47565b34801561023557600080fd5b50610249610244366004611a5a565b61069a565b6040516001600160a01b0390911681526020016101fe565b34801561026d57600080fd5b506102766106c1565b005b34801561028457600080fd5b50610276610293366004611a88565b6106df565b3480156102a457600080fd5b506102766102b3366004611a5a565b6107f9565b3480156102c457600080fd5b506102766102d3366004611ab4565b610806565b3480156102e457600080fd5b506102766102f3366004611af5565b610837565b610276610306366004611b12565b610861565b34801561031757600080fd5b5061032b610326366004611b8d565b6109f7565b604080516001600160a01b0390931683526020830191909152016101fe565b610276610358366004611a5a565b610a86565b34801561036957600080fd5b50610276610af0565b34801561037e57600080fd5b50610276610b88565b34801561039357600080fd5b506102766103a2366004611ab4565b610ba4565b3480156103b357600080fd5b506102766103c2366004611baf565b610bbf565b3480156103d357600080fd5b506102496103e2366004611a5a565b610bd3565b3480156103f357600080fd5b50610407610402366004611af5565b610c33565b6040519081526020016101fe565b34801561042157600080fd5b50610276610cb9565b34801561043657600080fd5b50610276610ccd565b34801561044b57600080fd5b5061027661045a366004611af5565b610ce9565b34801561046b57600080fd5b5061040766d529ae9e86000081565b34801561048657600080fd5b506006546001600160a01b0316610249565b3480156104a457600080fd5b5060085460ff166040516101fe9190611c37565b3480156104c457600080fd5b5061021c610dd0565b3480156104d957600080fd5b506102766104e8366004611c6d565b610ddf565b3480156104f957600080fd5b50610276610508366004611cbc565b610dee565b34801561051957600080fd5b5061021c610528366004611a5a565b610e26565b34801561053957600080fd5b50610276610548366004611a5a565b610f01565b34801561055957600080fd5b506101f2610568366004611d9c565b6001600160a01b03918216600090815260056020908152604080832093909416825291909152205460ff1690565b3480156105a257600080fd5b506102766105b1366004611af5565b610f0e565b60006001600160e01b031982166380ac58cd60e01b14806105e757506001600160e01b03198216635b5e139f60e01b145b8061060257506301ffc9a760e01b6001600160e01b03198316145b92915050565b60606000805461061790611dca565b80601f016020809104026020016040519081016040528092919081815260200182805461064390611dca565b80156106905780601f1061066557610100808354040283529160200191610690565b820191906000526020600020905b81548152906001019060200180831161067357829003601f168201915b5050505050905090565b60006106a582610f84565b506000908152600460205260409020546001600160a01b031690565b6106c9610fe3565b600880546001919060ff191682805b0217905550565b60006106ea82610bd3565b9050806001600160a01b0316836001600160a01b03160361075c5760405162461bcd60e51b815260206004820152602160248201527f4552433732313a20617070726f76616c20746f2063757272656e74206f776e656044820152603960f91b60648201526084015b60405180910390fd5b336001600160a01b038216148061077857506107788133610568565b6107ea5760405162461bcd60e51b815260206004820152603e60248201527f4552433732313a20617070726f76652063616c6c6572206973206e6f7420746f60448201527f6b656e206f776e6572206e6f7220617070726f76656420666f7220616c6c00006064820152608401610753565b6107f4838361103d565b505050565b610801610fe3565b600955565b61081033826110ab565b61082c5760405162461bcd60e51b815260040161075390611e04565b6107f483838361112a565b61083f610fe3565b600e80546001600160a01b0319166001600160a01b0392909216919091179055565b600160085460ff16600281111561087a5761087a611c21565b146108bc5760405162461bcd60e51b81526020600482015260126024820152713bb434ba32b634b9ba103737ba1037b832b760711b6044820152606401610753565b6109408383808060200260200160405190810160405280939291908181526020018383602002808284376000920191909152505060095460405190925061092591508590339060200191825260601b6bffffffffffffffffffffffff1916602082015260340190565b604051602081830303815290604052805190602001206112d5565b6109835760405162461bcd60e51b815260206004820152601460248201527334b73b30b634b21036b2b935b63290383937b7b360611b6044820152606401610753565b336000908152600c602052604090205460ff16156109d45760405162461bcd60e51b815260206004820152600e60248201526d185b1c9958591e481b5a5b9d195960921b6044820152606401610753565b336000908152600c60205260409020805460ff191660011790556107f4816112eb565b60008281526002602052604081205481906001600160a01b0316610a515760405162461bcd60e51b81526020600482015260116024820152703737b732bc34b9ba30b73a103a37b5b2b760791b6044820152606401610753565b6000620186a0600d5485610a659190611e68565b610a6f9190611e9d565b600e546001600160a01b0316969095509350505050565b600260085460ff166002811115610a9f57610a9f611c21565b14610ae45760405162461bcd60e51b81526020600482015260156024820152741c1d589b1a58c81b5a5b9d1a5b99c818db1bdcd959605a1b6044820152606401610753565b610aed816112eb565b50565b610af8610fe3565b604051600090339047908381818185875af1925050503d8060008114610b3a576040519150601f19603f3d011682016040523d82523d6000602084013e610b3f565b606091505b5050905080610aed5760405162461bcd60e51b81526020600482015260156024820152741d1c985b9cd9995c881d5b9cdd58d8d95cdcd99d5b605a1b6044820152606401610753565b610b90610fe3565b600880546002919060ff19166001836106d8565b6107f483838360405180602001604052806000815250610dee565b610bc7610fe3565b6107f4600a8383611923565b6000818152600260205260408120546001600160a01b0316806106025760405162461bcd60e51b8152602060048201526018602482015277115490cdcc8c4e881a5b9d985b1a59081d1bdad95b88125160421b6044820152606401610753565b60006001600160a01b038216610c9d5760405162461bcd60e51b815260206004820152602960248201527f4552433732313a2061646472657373207a65726f206973206e6f7420612076616044820152683634b21037bbb732b960b91b6064820152608401610753565b506001600160a01b031660009081526003602052604090205490565b610cc1610fe3565b610ccb60006113a9565b565b610cd5610fe3565b600880546000919060ff19166001836106d8565b610cf1610fe3565b6040516370a0823160e01b81523060048201526000906001600160a01b038316906370a0823190602401602060405180830381865afa158015610d38573d6000803e3d6000fd5b505050506040513d601f19601f82011682018060405250810190610d5c9190611eb1565b60405163a9059cbb60e01b8152336004820152602481018290529091506001600160a01b0383169063a9059cbb906044016020604051808303816000875af1158015610dac573d6000803e3d6000fd5b505050506040513d601f19601f820116820180604052508101906107f49190611eca565b60606001805461061790611dca565b610dea3383836113fb565b5050565b610df833836110ab565b610e145760405162461bcd60e51b815260040161075390611e04565b610e20848484846114c9565b50505050565b6000818152600260205260409020546060906001600160a01b0316610ea55760405162461bcd60e51b815260206004820152602f60248201527f4552433732314d657461646174613a2055524920717565727920666f72206e6f60448201526e3732bc34b9ba32b73a103a37b5b2b760891b6064820152608401610753565b6000600a8054610eb490611dca565b905011610ed05760405180602001604052806000815250610602565b600a610edb836114fc565b604051602001610eec929190611f03565b60405160208183030381529060405292915050565b610f09610fe3565b600d55565b610f16610fe3565b6001600160a01b038116610f7b5760405162461bcd60e51b815260206004820152602660248201527f4f776e61626c653a206e6577206f776e657220697320746865207a65726f206160448201526564647265737360d01b6064820152608401610753565b610aed816113a9565b6000818152600260205260409020546001600160a01b0316610aed5760405162461bcd60e51b8152602060048201526018602482015277115490cdcc8c4e881a5b9d985b1a59081d1bdad95b88125160421b6044820152606401610753565b6006546001600160a01b03163314610ccb5760405162461bcd60e51b815260206004820181905260248201527f4f776e61626c653a2063616c6c6572206973206e6f7420746865206f776e65726044820152606401610753565b600081815260046020526040902080546001600160a01b0319166001600160a01b038416908117909155819061107282610bd3565b6001600160a01b03167f8c5be1e5ebec7d5bd14f71427d1e84f3dd0314c0f7b2291e5b200ac8c7c3b92560405160405180910390a45050565b6000806110b783610bd3565b9050806001600160a01b0316846001600160a01b031614806110fe57506001600160a01b0380821660009081526005602090815260408083209388168352929052205460ff165b806111225750836001600160a01b03166111178461069a565b6001600160a01b0316145b949350505050565b826001600160a01b031661113d82610bd3565b6001600160a01b0316146111a15760405162461bcd60e51b815260206004820152602560248201527f4552433732313a207472616e736665722066726f6d20696e636f72726563742060448201526437bbb732b960d91b6064820152608401610753565b6001600160a01b0382166112035760405162461bcd60e51b8152602060048201526024808201527f4552433732313a207472616e7366657220746f20746865207a65726f206164646044820152637265737360e01b6064820152608401610753565b600081815260046020908152604080832080546001600160a01b03191690556001600160a01b038616835260039091528120805460019290611246908490611fbd565b90915550506001600160a01b0382166000908152600360205260408120805460019290611274908490611fd4565b909155505060008181526002602052604080822080546001600160a01b0319166001600160a01b0386811691821790925591518493918716917fddf252ad1be2c89b69c2b068fc378daa952ba7f163c4a11628f55a4df523b3ef91a4505050565b6000826112e285846115fd565b14949350505050565b600754600b54106113295760405162461bcd60e51b81526020600482015260086024820152671cdbdb19081bdd5d60c21b6044820152606401610753565b61133a8166d529ae9e860000611e68565b341461137b5760405162461bcd60e51b815260206004820152601060248201526f1ddc9bdb99c81d985b1d59481cd95b9d60821b6044820152606401610753565b60005b81811015610dea576113973361139261164a565b611661565b806113a181611fec565b91505061137e565b600680546001600160a01b038381166001600160a01b0319831681179093556040519116919082907f8be0079c531659141344cd1fd0a4f28419497f9722a3daafe3b4186f6b6457e090600090a35050565b816001600160a01b0316836001600160a01b03160361145c5760405162461bcd60e51b815260206004820152601960248201527f4552433732313a20617070726f766520746f2063616c6c6572000000000000006044820152606401610753565b6001600160a01b03838116600081815260056020908152604080832094871680845294825291829020805460ff191686151590811790915591519182527f17307eab39ab6107e8899845ad3d59bd9653f200f220920489ca2b5937696c31910160405180910390a3505050565b6114d484848461112a565b6114e08484848461167b565b610e205760405162461bcd60e51b815260040161075390612005565b6060816000036115235750506040805180820190915260018152600360fc1b602082015290565b8160005b811561154d578061153781611fec565b91506115469050600a83611e9d565b9150611527565b60008167ffffffffffffffff81111561156857611568611ca6565b6040519080825280601f01601f191660200182016040528015611592576020820181803683370190505b5090505b8415611122576115a7600183611fbd565b91506115b4600a86612057565b6115bf906030611fd4565b60f81b8183815181106115d4576115d461206b565b60200101906001600160f81b031916908160001a9053506115f6600a86611e9d565b9450611596565b600081815b84518110156116425761162e828683815181106116215761162161206b565b602002602001015161177c565b91508061163a81611fec565b915050611602565b509392505050565b600061165a600b80546001019055565b50600b5490565b610dea8282604051806020016040528060008152506117ae565b60006001600160a01b0384163b1561177157604051630a85bd0160e11b81526001600160a01b0385169063150b7a02906116bf903390899088908890600401612081565b6020604051808303816000875af19250505080156116fa575060408051601f3d908101601f191682019092526116f7918101906120be565b60015b611757573d808015611728576040519150601f19603f3d011682016040523d82523d6000602084013e61172d565b606091505b50805160000361174f5760405162461bcd60e51b815260040161075390612005565b805181602001fd5b6001600160e01b031916630a85bd0160e11b149050611122565b506001949350505050565b60008183106117985760008281526020849052604090206117a7565b60008381526020839052604090205b9392505050565b6117b883836117e1565b6117c5600084848461167b565b6107f45760405162461bcd60e51b815260040161075390612005565b6001600160a01b0382166118375760405162461bcd60e51b815260206004820181905260248201527f4552433732313a206d696e7420746f20746865207a65726f20616464726573736044820152606401610753565b6000818152600260205260409020546001600160a01b03161561189c5760405162461bcd60e51b815260206004820152601c60248201527f4552433732313a20746f6b656e20616c7265616479206d696e746564000000006044820152606401610753565b6001600160a01b03821660009081526003602052604081208054600192906118c5908490611fd4565b909155505060008181526002602052604080822080546001600160a01b0319166001600160a01b03861690811790915590518392907fddf252ad1be2c89b69c2b068fc378daa952ba7f163c4a11628f55a4df523b3ef908290a45050565b82805461192f90611dca565b90600052602060002090601f0160209004810192826119515760008555611997565b82601f1061196a5782800160ff19823516178555611997565b82800160010185558215611997579182015b8281111561199757823582559160200191906001019061197c565b506119a39291506119a7565b5090565b5b808211156119a357600081556001016119a8565b6001600160e01b031981168114610aed57600080fd5b6000602082840312156119e457600080fd5b81356117a7816119bc565b60005b83811015611a0a5781810151838201526020016119f2565b83811115610e205750506000910152565b60008151808452611a338160208601602086016119ef565b601f01601f19169290920160200192915050565b6020815260006117a76020830184611a1b565b600060208284031215611a6c57600080fd5b5035919050565b6001600160a01b0381168114610aed57600080fd5b60008060408385031215611a9b57600080fd5b8235611aa681611a73565b946020939093013593505050565b600080600060608486031215611ac957600080fd5b8335611ad481611a73565b92506020840135611ae481611a73565b929592945050506040919091013590565b600060208284031215611b0757600080fd5b81356117a781611a73565b600080600060408486031215611b2757600080fd5b833567ffffffffffffffff80821115611b3f57600080fd5b818601915086601f830112611b5357600080fd5b813581811115611b6257600080fd5b8760208260051b8501011115611b7757600080fd5b6020928301989097509590910135949350505050565b60008060408385031215611ba057600080fd5b50508035926020909101359150565b60008060208385031215611bc257600080fd5b823567ffffffffffffffff80821115611bda57600080fd5b818501915085601f830112611bee57600080fd5b813581811115611bfd57600080fd5b866020828501011115611c0f57600080fd5b60209290920196919550909350505050565b634e487b7160e01b600052602160045260246000fd5b6020810160038310611c5957634e487b7160e01b600052602160045260246000fd5b91905290565b8015158114610aed57600080fd5b60008060408385031215611c8057600080fd5b8235611c8b81611a73565b91506020830135611c9b81611c5f565b809150509250929050565b634e487b7160e01b600052604160045260246000fd5b60008060008060808587031215611cd257600080fd5b8435611cdd81611a73565b93506020850135611ced81611a73565b925060408501359150606085013567ffffffffffffffff80821115611d1157600080fd5b818701915087601f830112611d2557600080fd5b813581811115611d3757611d37611ca6565b604051601f8201601f19908116603f01168101908382118183101715611d5f57611d5f611ca6565b816040528281528a6020848701011115611d7857600080fd5b82602086016020830137600060208483010152809550505050505092959194509250565b60008060408385031215611daf57600080fd5b8235611dba81611a73565b91506020830135611c9b81611a73565b600181811c90821680611dde57607f821691505b602082108103611dfe57634e487b7160e01b600052602260045260246000fd5b50919050565b6020808252602e908201527f4552433732313a2063616c6c6572206973206e6f7420746f6b656e206f776e6560408201526d1c881b9bdc88185c1c1c9bdd995960921b606082015260800190565b634e487b7160e01b600052601160045260246000fd5b6000816000190483118215151615611e8257611e82611e52565b500290565b634e487b7160e01b600052601260045260246000fd5b600082611eac57611eac611e87565b500490565b600060208284031215611ec357600080fd5b5051919050565b600060208284031215611edc57600080fd5b81516117a781611c5f565b60008151611ef98185602086016119ef565b9290920192915050565b600080845481600182811c915080831680611f1f57607f831692505b60208084108203611f3e57634e487b7160e01b86526022600452602486fd5b818015611f525760018114611f6357611f90565b60ff19861689528489019650611f90565b60008b81526020902060005b86811015611f885781548b820152908501908301611f6f565b505084890196505b505050505050611fb4611fa38286611ee7565b64173539b7b760d91b815260050190565b95945050505050565b600082821015611fcf57611fcf611e52565b500390565b60008219821115611fe757611fe7611e52565b500190565b600060018201611ffe57611ffe611e52565b5060010190565b60208082526032908201527f4552433732313a207472616e7366657220746f206e6f6e20455243373231526560408201527131b2b4bb32b91034b6b83632b6b2b73a32b960711b606082015260800190565b60008261206657612066611e87565b500690565b634e487b7160e01b600052603260045260246000fd5b6001600160a01b03858116825284166020820152604081018390526080606082018190526000906120b490830184611a1b565b9695505050505050565b6000602082840312156120d057600080fd5b81516117a7816119bc56fea2646970667358221220ddf1684ab3b704a305b417989bb1428f61fa72d3bf4a1807cf9ac64aabaf2a0a64736f6c634300080d0033",
    "linkReferences": {}
  },
  "methodIdentifiers": {
    "PRICE()": "8d859f3e",
    "approve(address,uint256)": "095ea7b3",
    "balanceOf(address)": "70a08231",
    "closeMinting()": "87491c60",
    "getApproved(uint256)": "081812fc",
    "getMintStatus()": "941ada0e",
    "isApprovedForAll(address,address)": "e985e9c5",
    "name()": "06fdde03",
    "openPublic()": "3fc80006",
    "openWhitelist()": "083bbe7f",
    "owner()": "8da5cb5b",
    "ownerOf(uint256)": "6352211e",
    "publicMint(uint256)": "2db11544",
    "renounceOwnership()": "715018a6",
    "royaltyInfo(uint256,uint256)": "2a55205a",
    "safeTransferFrom(address,address,uint256)": "42842e0e",
    "safeTransferFrom(address,address,uint256,bytes)": "b88d4fde",
    "setApprovalForAll(address,bool)": "a22cb465",
    "setBaseURI(string)": "55f804b3",
    "supportsInterface(bytes4)": "01ffc9a7",
    "symbol()": "95d89b41",
    "tokenURI(uint256)": "c87b56dd",
    "transferFrom(address,address,uint256)": "23b872dd",
    "transferOwnership(address)": "f2fde38b",
    "updateRoot(bytes32)": "21ff9970",
    "updateRoyaltyRate(uint256)": "e1ee5c83",
    "updateRoyaltyWallet(address)": "268247d9",
    "whitelistMint(bytes32[],uint256)": "2904e6d9",
    "withdraw()": "3ccfd60b",
    "withdrawToken(address)": "89476069"
  },
  "id": 19
}