{
  "_format": "hh-sol-artifact-1",
  "contractName": "CapitalistPigs",
  "sourceName": "contracts/CapitalistPigs.sol",
  "abi": [
    {
      "inputs": [
        {
          "internalType": "bytes32",
          "name": "_root",
          "type": "bytes32"
        },
        {
          "internalType": "string",
          "name": "_baseURI",
          "type": "string"
        },
        {
          "internalType": "address payable",
          "name": "_royaltyWallet",
          "type": "address"
        },
        {
          "internalType": "address payable",
          "name": "_devWallet",
          "type": "address"
        }
      ],
      "stateMutability": "nonpayable",
      "type": "constructor"
    },
    {
      "anonymous": false,
      "inputs": [
        {
          "indexed": true,
          "internalType": "address",
          "name": "owner",
          "type": "address"
        },
        {
          "indexed": true,
          "internalType": "address",
          "name": "approved",
          "type": "address"
        },
        {
          "indexed": true,
          "internalType": "uint256",
          "name": "tokenId",
          "type": "uint256"
        }
      ],
      "name": "Approval",
      "type": "event"
    },
    {
      "anonymous": false,
      "inputs": [
        {
          "indexed": true,
          "internalType": "address",
          "name": "owner",
          "type": "address"
        },
        {
          "indexed": true,
          "internalType": "address",
          "name": "operator",
          "type": "address"
        },
        {
          "indexed": false,
          "internalType": "bool",
          "name": "approved",
          "type": "bool"
        }
      ],
      "name": "ApprovalForAll",
      "type": "event"
    },
    {
      "anonymous": false,
      "inputs": [
        {
          "indexed": true,
          "internalType": "address",
          "name": "previousOwner",
          "type": "address"
        },
        {
          "indexed": true,
          "internalType": "address",
          "name": "newOwner",
          "type": "address"
        }
      ],
      "name": "OwnershipTransferred",
      "type": "event"
    },
    {
      "anonymous": false,
      "inputs": [
        {
          "indexed": true,
          "internalType": "address",
          "name": "from",
          "type": "address"
        },
        {
          "indexed": true,
          "internalType": "address",
          "name": "to",
          "type": "address"
        },
        {
          "indexed": true,
          "internalType": "uint256",
          "name": "tokenId",
          "type": "uint256"
        }
      ],
      "name": "Transfer",
      "type": "event"
    },
    {
      "inputs": [
        {
          "internalType": "address",
          "name": "to",
          "type": "address"
        },
        {
          "internalType": "uint256",
          "name": "tokenId",
          "type": "uint256"
        }
      ],
      "name": "approve",
      "outputs": [],
      "stateMutability": "nonpayable",
      "type": "function"
    },
    {
      "inputs": [
        {
          "internalType": "address",
          "name": "owner",
          "type": "address"
        }
      ],
      "name": "balanceOf",
      "outputs": [
        {
          "internalType": "uint256",
          "name": "",
          "type": "uint256"
        }
      ],
      "stateMutability": "view",
      "type": "function"
    },
    {
      "inputs": [
        {
          "internalType": "uint256",
          "name": "_price",
          "type": "uint256"
        },
        {
          "internalType": "enum CapitalistPigs.MintStatus",
          "name": "_mintStatus",
          "type": "uint8"
        },
        {
          "internalType": "uint256",
          "name": "_minId",
          "type": "uint256"
        },
        {
          "internalType": "uint256",
          "name": "_maxId",
          "type": "uint256"
        },
        {
          "internalType": "uint256",
          "name": "_nextId",
          "type": "uint256"
        }
      ],
      "name": "createNewTier",
      "outputs": [],
      "stateMutability": "nonpayable",
      "type": "function"
    },
    {
      "inputs": [
        {
          "internalType": "uint256",
          "name": "tokenId",
          "type": "uint256"
        }
      ],
      "name": "getApproved",
      "outputs": [
        {
          "internalType": "address",
          "name": "",
          "type": "address"
        }
      ],
      "stateMutability": "view",
      "type": "function"
    },
    {
      "inputs": [
        {
          "internalType": "uint256",
          "name": "_edition",
          "type": "uint256"
        }
      ],
      "name": "getTierInfo",
      "outputs": [
        {
          "components": [
            {
              "internalType": "uint256",
              "name": "price",
              "type": "uint256"
            },
            {
              "internalType": "enum CapitalistPigs.MintStatus",
              "name": "mintStatus",
              "type": "uint8"
            },
            {
              "internalType": "uint256",
              "name": "minId",
              "type": "uint256"
            },
            {
              "internalType": "uint256",
              "name": "maxId",
              "type": "uint256"
            },
            {
              "internalType": "uint256",
              "name": "nextId",
              "type": "uint256"
            }
          ],
          "internalType": "struct CapitalistPigs.TierInfo",
          "name": "",
          "type": "tuple"
        }
      ],
      "stateMutability": "view",
      "type": "function"
    },
    {
      "inputs": [
        {
          "internalType": "address",
          "name": "owner",
          "type": "address"
        },
        {
          "internalType": "address",
          "name": "operator",
          "type": "address"
        }
      ],
      "name": "isApprovedForAll",
      "outputs": [
        {
          "internalType": "bool",
          "name": "",
          "type": "bool"
        }
      ],
      "stateMutability": "view",
      "type": "function"
    },
    {
      "inputs": [
        {
          "internalType": "uint256",
          "name": "_edition",
          "type": "uint256"
        },
        {
          "internalType": "bytes32[]",
          "name": "_proof",
          "type": "bytes32[]"
        }
      ],
      "name": "mintPresale",
      "outputs": [],
      "stateMutability": "payable",
      "type": "function"
    },
    {
      "inputs": [
        {
          "internalType": "uint256",
          "name": "_edition",
          "type": "uint256"
        },
        {
          "internalType": "uint256",
          "name": "_quantity",
          "type": "uint256"
        }
      ],
      "name": "mintPublic",
      "outputs": [],
      "stateMutability": "payable",
      "type": "function"
    },
    {
      "inputs": [],
      "name": "name",
      "outputs": [
        {
          "internalType": "string",
          "name": "",
          "type": "string"
        }
      ],
      "stateMutability": "view",
      "type": "function"
    },
    {
      "inputs": [],
      "name": "owner",
      "outputs": [
        {
          "internalType": "address",
          "name": "",
          "type": "address"
        }
      ],
      "stateMutability": "view",
      "type": "function"
    },
    {
      "inputs": [
        {
          "internalType": "uint256",
          "name": "_edition",
          "type": "uint256"
        },
        {
          "internalType": "address",
          "name": "_to",
          "type": "address"
        }
      ],
      "name": "ownerMint",
      "outputs": [],
      "stateMutability": "nonpayable",
      "type": "function"
    },
    {
      "inputs": [
        {
          "internalType": "uint256",
          "name": "tokenId",
          "type": "uint256"
        }
      ],
      "name": "ownerOf",
      "outputs": [
        {
          "internalType": "address",
          "name": "",
          "type": "address"
        }
      ],
      "stateMutability": "view",
      "type": "function"
    },
    {
      "inputs": [],
      "name": "renounceOwnership",
      "outputs": [],
      "stateMutability": "nonpayable",
      "type": "function"
    },
    {
      "inputs": [
        {
          "internalType": "uint256",
          "name": "_tokenId",
          "type": "uint256"
        },
        {
          "internalType": "uint256",
          "name": "_salePrice",
          "type": "uint256"
        }
      ],
      "name": "royaltyInfo",
      "outputs": [
        {
          "internalType": "address",
          "name": "receiver",
          "type": "address"
        },
        {
          "internalType": "uint256",
          "name": "royaltyAmount",
          "type": "uint256"
        }
      ],
      "stateMutability": "view",
      "type": "function"
    },
    {
      "inputs": [
        {
          "internalType": "address",
          "name": "from",
          "type": "address"
        },
        {
          "internalType": "address",
          "name": "to",
          "type": "address"
        },
        {
          "internalType": "uint256",
          "name": "tokenId",
          "type": "uint256"
        }
      ],
      "name": "safeTransferFrom",
      "outputs": [],
      "stateMutability": "nonpayable",
      "type": "function"
    },
    {
      "inputs": [
        {
          "internalType": "address",
          "name": "from",
          "type": "address"
        },
        {
          "internalType": "address",
          "name": "to",
          "type": "address"
        },
        {
          "internalType": "uint256",
          "name": "tokenId",
          "type": "uint256"
        },
        {
          "internalType": "bytes",
          "name": "_data",
          "type": "bytes"
        }
      ],
      "name": "safeTransferFrom",
      "outputs": [],
      "stateMutability": "nonpayable",
      "type": "function"
    },
    {
      "inputs": [
        {
          "internalType": "address",
          "name": "operator",
          "type": "address"
        },
        {
          "internalType": "bool",
          "name": "approved",
          "type": "bool"
        }
      ],
      "name": "setApprovalForAll",
      "outputs": [],
      "stateMutability": "nonpayable",
      "type": "function"
    },
    {
      "inputs": [
        {
          "internalType": "string",
          "name": "_newBaseURI",
          "type": "string"
        }
      ],
      "name": "setBaseURI",
      "outputs": [],
      "stateMutability": "nonpayable",
      "type": "function"
    },
    {
      "inputs": [
        {
          "internalType": "uint256",
          "name": "_presale",
          "type": "uint256"
        }
      ],
      "name": "setCurrentPresale",
      "outputs": [],
      "stateMutability": "nonpayable",
      "type": "function"
    },
    {
      "inputs": [
        {
          "internalType": "address payable",
          "name": "_devWallet",
          "type": "address"
        }
      ],
      "name": "setDevWallet",
      "outputs": [],
      "stateMutability": "nonpayable",
      "type": "function"
    },
    {
      "inputs": [
        {
          "internalType": "uint256",
          "name": "_edition",
          "type": "uint256"
        },
        {
          "internalType": "uint256",
          "name": "_maxId",
          "type": "uint256"
        }
      ],
      "name": "setMaxId",
      "outputs": [],
      "stateMutability": "nonpayable",
      "type": "function"
    },
    {
      "inputs": [
        {
          "internalType": "bytes32",
          "name": "_root",
          "type": "bytes32"
        }
      ],
      "name": "setMerkleRoot",
      "outputs": [],
      "stateMutability": "nonpayable",
      "type": "function"
    },
    {
      "inputs": [
        {
          "internalType": "uint256",
          "name": "_edition",
          "type": "uint256"
        },
        {
          "internalType": "enum CapitalistPigs.MintStatus",
          "name": "_status",
          "type": "uint8"
        }
      ],
      "name": "setMintStatus",
      "outputs": [],
      "stateMutability": "nonpayable",
      "type": "function"
    },
    {
      "inputs": [
        {
          "internalType": "uint256",
          "name": "_edition",
          "type": "uint256"
        },
        {
          "internalType": "uint256",
          "name": "_price",
          "type": "uint256"
        }
      ],
      "name": "setPrice",
      "outputs": [],
      "stateMutability": "nonpayable",
      "type": "function"
    },
    {
      "inputs": [
        {
          "internalType": "bytes4",
          "name": "interfaceId",
          "type": "bytes4"
        }
      ],
      "name": "supportsInterface",
      "outputs": [
        {
          "internalType": "bool",
          "name": "",
          "type": "bool"
        }
      ],
      "stateMutability": "view",
      "type": "function"
    },
    {
      "inputs": [],
      "name": "symbol",
      "outputs": [
        {
          "internalType": "string",
          "name": "",
          "type": "string"
        }
      ],
      "stateMutability": "view",
      "type": "function"
    },
    {
      "inputs": [
        {
          "internalType": "uint256",
          "name": "tokenId",
          "type": "uint256"
        }
      ],
      "name": "tokenURI",
      "outputs": [
        {
          "internalType": "string",
          "name": "",
          "type": "string"
        }
      ],
      "stateMutability": "view",
      "type": "function"
    },
    {
      "inputs": [
        {
          "internalType": "address",
          "name": "from",
          "type": "address"
        },
        {
          "internalType": "address",
          "name": "to",
          "type": "address"
        },
        {
          "internalType": "uint256",
          "name": "tokenId",
          "type": "uint256"
        }
      ],
      "name": "transferFrom",
      "outputs": [],
      "stateMutability": "nonpayable",
      "type": "function"
    },
    {
      "inputs": [
        {
          "internalType": "address",
          "name": "newOwner",
          "type": "address"
        }
      ],
      "name": "transferOwnership",
      "outputs": [],
      "stateMutability": "nonpayable",
      "type": "function"
    },
    {
      "inputs": [
        {
          "internalType": "uint256",
          "name": "_rate",
          "type": "uint256"
        }
      ],
      "name": "updateRoyaltyRate",
      "outputs": [],
      "stateMutability": "nonpayable",
      "type": "function"
    },
    {
      "inputs": [
        {
          "internalType": "address payable",
          "name": "_wallet",
          "type": "address"
        }
      ],
      "name": "updateRoyaltyWallet",
      "outputs": [],
      "stateMutability": "nonpayable",
      "type": "function"
    },
    {
      "inputs": [
        {
          "internalType": "address payable",
          "name": "_addr",
          "type": "address"
        }
      ],
      "name": "withdrawEth",
      "outputs": [],
      "stateMutability": "nonpayable",
      "type": "function"
    },
    {
      "inputs": [
        {
          "internalType": "address",
          "name": "token",
          "type": "address"
        },
        {
          "internalType": "address",
          "name": "_addr",
          "type": "address"
        }
      ],
      "name": "withdrawToken",
      "outputs": [],
      "stateMutability": "nonpayable",
      "type": "function"
    }
  ],
  "bytecode": "0x60806040523480156200001157600080fd5b5060405162005575380380620055758339818101604052810190620000379190620004e2565b6040518060400160405280600f81526020017f4361707469616c697374205069677300000000000000000000000000000000008152506040518060400160405280600481526020017f50494753000000000000000000000000000000000000000000000000000000008152508160009080519060200190620000bb92919062000392565b508060019080519060200190620000d492919062000392565b505050620000f7620000eb620002c460201b60201c565b620002cc60201b60201c565b83600b8190555082600d90805190602001906200011692919062000392565b50612710600e8190555081600f60006101000a81548173ffffffffffffffffffffffffffffffffffffffff021916908373ffffffffffffffffffffffffffffffffffffffff16021790555080600c60006101000a81548173ffffffffffffffffffffffffffffffffffffffff021916908373ffffffffffffffffffffffffffffffffffffffff1602179055506040518060a00160405280674563918244f400008152602001600280811115620001f5577f4e487b7100000000000000000000000000000000000000000000000000000000600052602160045260246000fd5b8152602001600081526020016063815260200160008152506007600060086000815480929190620002269062000682565b9190505581526020019081526020016000206000820151816000015560208201518160010160006101000a81548160ff0219169083600281111562000294577f4e487b7100000000000000000000000000000000000000000000000000000000600052602160045260246000fd5b02179055506040820151816002015560608201518160030155608082015181600401559050505050505062000791565b600033905090565b6000600660009054906101000a900473ffffffffffffffffffffffffffffffffffffffff16905081600660006101000a81548173ffffffffffffffffffffffffffffffffffffffff021916908373ffffffffffffffffffffffffffffffffffffffff1602179055508173ffffffffffffffffffffffffffffffffffffffff168173ffffffffffffffffffffffffffffffffffffffff167f8be0079c531659141344cd1fd0a4f28419497f9722a3daafe3b4186f6b6457e060405160405180910390a35050565b828054620003a0906200064c565b90600052602060002090601f016020900481019282620003c4576000855562000410565b82601f10620003df57805160ff191683800117855562000410565b8280016001018555821562000410579182015b828111156200040f578251825591602001919060010190620003f2565b5b5090506200041f919062000423565b5090565b5b808211156200043e57600081600090555060010162000424565b5090565b60006200045962000453846200059b565b62000567565b9050828152602081018484840111156200047257600080fd5b6200047f84828562000616565b509392505050565b60008151905062000498816200075d565b92915050565b600081519050620004af8162000777565b92915050565b600082601f830112620004c757600080fd5b8151620004d984826020860162000442565b91505092915050565b60008060008060808587031215620004f957600080fd5b600062000509878288016200049e565b945050602085015167ffffffffffffffff8111156200052757600080fd5b6200053587828801620004b5565b9350506040620005488782880162000487565b92505060606200055b8782880162000487565b91505092959194509250565b6000604051905081810181811067ffffffffffffffff821117156200059157620005906200072e565b5b8060405250919050565b600067ffffffffffffffff821115620005b957620005b86200072e565b5b601f19601f8301169050602081019050919050565b6000620005db82620005ec565b9050919050565b6000819050919050565b600073ffffffffffffffffffffffffffffffffffffffff82169050919050565b6000819050919050565b60005b838110156200063657808201518184015260208101905062000619565b8381111562000646576000848401525b50505050565b600060028204905060018216806200066557607f821691505b602082108114156200067c576200067b620006ff565b5b50919050565b60006200068f826200060c565b91507fffffffffffffffffffffffffffffffffffffffffffffffffffffffffffffffff821415620006c557620006c4620006d0565b5b600182019050919050565b7f4e487b7100000000000000000000000000000000000000000000000000000000600052601160045260246000fd5b7f4e487b7100000000000000000000000000000000000000000000000000000000600052602260045260246000fd5b7f4e487b7100000000000000000000000000000000000000000000000000000000600052604160045260246000fd5b6200076881620005ce565b81146200077457600080fd5b50565b6200078281620005e2565b81146200078e57600080fd5b50565b614dd480620007a16000396000f3fe6080604052600436106101ee5760003560e01c80636580a6ad1161010d578063b88d4fde116100a0578063e1ee5c831161006f578063e1ee5c83146106e3578063e985e9c51461070c578063ed5ab3f614610749578063f2fde38b14610765578063f7d975771461078e576101ee565b8063b88d4fde14610617578063c87b56dd14610640578063cc9d75191461067d578063d52c57e0146106ba576101ee565b80638da5cb5b116100dc5780638da5cb5b1461056f57806392b966c11461059a57806395d89b41146105c3578063a22cb465146105ee576101ee565b80636580a6ad146104c957806370a08231146104f2578063715018a61461052f5780637cb6475914610546576101ee565b8063268247d91161018557806342842e0e1161015457806342842e0e1461041157806342b658351461043a57806355f804b3146104635780636352211e1461048c576101ee565b8063268247d9146103585780632a55205a146103815780633aeac4e1146103bf5780633c425dc3146103e8576101ee565b80630c0a6b5e116101c15780630c0a6b5e146102c15780631f53ac02146102dd57806323b872dd1461030657806325e160631461032f576101ee565b806301ffc9a7146101f357806306fdde0314610230578063081812fc1461025b578063095ea7b314610298575b600080fd5b3480156101ff57600080fd5b5061021a60048036038101906102159190613638565b6107b7565b604051610227919061444f565b60405180910390f35b34801561023c57600080fd5b50610245610899565b604051610252919061446a565b60405180910390f35b34801561026757600080fd5b50610282600480360381019061027d91906136cb565b61092b565b60405161028f9190614396565b60405180910390f35b3480156102a457600080fd5b506102bf60048036038101906102ba91906135aa565b6109b0565b005b6102db60048036038101906102d69190613759565b610ac8565b005b3480156102e957600080fd5b5061030460048036038101906102ff919061343f565b610d78565b005b34801561031257600080fd5b5061032d600480360381019061032891906134a4565b610e38565b005b34801561033b57600080fd5b506103566004803603810190610351919061343f565b610e98565b005b34801561036457600080fd5b5061037f600480360381019061037a919061343f565b610fd9565b005b34801561038d57600080fd5b506103a860048036038101906103a39190613864565b611099565b6040516103b6929190614426565b60405180910390f35b3480156103cb57600080fd5b506103e660048036038101906103e19190613468565b611134565b005b3480156103f457600080fd5b5061040f600480360381019061040a91906136cb565b61139d565b005b34801561041d57600080fd5b50610438600480360381019061043391906134a4565b611423565b005b34801561044657600080fd5b50610461600480360381019061045c91906137b1565b611443565b005b34801561046f57600080fd5b5061048a6004803603810190610485919061368a565b611527565b005b34801561049857600080fd5b506104b360048036038101906104ae91906136cb565b6115bd565b6040516104c09190614396565b60405180910390f35b3480156104d557600080fd5b506104f060048036038101906104eb91906137ed565b61166f565b005b3480156104fe57600080fd5b5061051960048036038101906105149190613416565b611861565b60405161052691906147c7565b60405180910390f35b34801561053b57600080fd5b50610544611919565b005b34801561055257600080fd5b5061056d6004803603810190610568919061360f565b6119a1565b005b34801561057b57600080fd5b50610584611a27565b6040516105919190614396565b60405180910390f35b3480156105a657600080fd5b506105c160048036038101906105bc9190613864565b611a51565b005b3480156105cf57600080fd5b506105d8611b50565b6040516105e5919061446a565b60405180910390f35b3480156105fa57600080fd5b506106156004803603810190610610919061356e565b611be2565b005b34801561062357600080fd5b5061063e600480360381019061063991906134f3565b611bf8565b005b34801561064c57600080fd5b50610667600480360381019061066291906136cb565b611c5a565b604051610674919061446a565b60405180910390f35b34801561068957600080fd5b506106a4600480360381019061069f91906136cb565b611cd6565b6040516106b191906147ac565b60405180910390f35b3480156106c657600080fd5b506106e160048036038101906106dc919061371d565b611db2565b005b3480156106ef57600080fd5b5061070a600480360381019061070591906136cb565b611eb6565b005b34801561071857600080fd5b50610733600480360381019061072e9190613468565b611f3c565b604051610740919061444f565b60405180910390f35b610763600480360381019061075e9190613864565b611fd0565b005b34801561077157600080fd5b5061078c60048036038101906107879190613416565b6120b9565b005b34801561079a57600080fd5b506107b560048036038101906107b09190613864565b6121b1565b005b60007f80ac58cd000000000000000000000000000000000000000000000000000000007bffffffffffffffffffffffffffffffffffffffffffffffffffffffff1916827bffffffffffffffffffffffffffffffffffffffffffffffffffffffff1916148061088257507f5b5e139f000000000000000000000000000000000000000000000000000000007bffffffffffffffffffffffffffffffffffffffffffffffffffffffff1916827bffffffffffffffffffffffffffffffffffffffffffffffffffffffff1916145b8061089257506108918261224c565b5b9050919050565b6060600080546108a890614b0d565b80601f01602080910402602001604051908101604052809291908181526020018280546108d490614b0d565b80156109215780601f106108f657610100808354040283529160200191610921565b820191906000526020600020905b81548152906001019060200180831161090457829003601f168201915b5050505050905090565b6000610936826122b6565b610975576040517f08c379a000000000000000000000000000000000000000000000000000000000815260040161096c9061460c565b60405180910390fd5b6004600083815260200190815260200160002060009054906101000a900473ffffffffffffffffffffffffffffffffffffffff169050919050565b60006109bb826115bd565b90508073ffffffffffffffffffffffffffffffffffffffff168373ffffffffffffffffffffffffffffffffffffffff161415610a2c576040517f08c379a0000000000000000000000000000000000000000000000000000000008152600401610a239061468c565b60405180910390fd5b8073ffffffffffffffffffffffffffffffffffffffff16610a4b612322565b73ffffffffffffffffffffffffffffffffffffffff161480610a7a5750610a7981610a74612322565b611f3c565b5b610ab9576040517f08c379a0000000000000000000000000000000000000000000000000000000008152600401610ab09061458c565b60405180910390fd5b610ac3838361232a565b505050565b600060076000858152602001908152602001600020905060016002811115610b19577f4e487b7100000000000000000000000000000000000000000000000000000000600052602160045260246000fd5b8160010160009054906101000a900460ff166002811115610b63577f4e487b7100000000000000000000000000000000000000000000000000000000600052602160045260246000fd5b14610ba3576040517f08c379a0000000000000000000000000000000000000000000000000000000008152600401610b9a9061470c565b60405180910390fd5b60001515600a6000600954815260200190815260200160002060003373ffffffffffffffffffffffffffffffffffffffff1673ffffffffffffffffffffffffffffffffffffffff16815260200190815260200160002060009054906101000a900460ff16151514610c49576040517f08c379a0000000000000000000000000000000000000000000000000000000008152600401610c409061478c565b60405180910390fd5b610cbd838380806020026020016040519081016040528093929190818152602001838360200280828437600081840152601f19601f82011690508083019250505050505050600b5433604051602001610ca29190614320565b604051602081830303815290604052805190602001206123e3565b610cfc576040517f08c379a0000000000000000000000000000000000000000000000000000000008152600401610cf3906144cc565b60405180910390fd5b6001600a6000600954815260200190815260200160002060003373ffffffffffffffffffffffffffffffffffffffff1673ffffffffffffffffffffffffffffffffffffffff16815260200190815260200160002060006101000a81548160ff021916908315150217905550610d728160016123fa565b50505050565b610d80612322565b73ffffffffffffffffffffffffffffffffffffffff16610d9e611a27565b73ffffffffffffffffffffffffffffffffffffffff1614610df4576040517f08c379a0000000000000000000000000000000000000000000000000000000008152600401610deb9061462c565b60405180910390fd5b80600c60006101000a81548173ffffffffffffffffffffffffffffffffffffffff021916908373ffffffffffffffffffffffffffffffffffffffff16021790555050565b610e49610e43612322565b826124db565b610e88576040517f08c379a0000000000000000000000000000000000000000000000000000000008152600401610e7f906146ac565b60405180910390fd5b610e938383836125b9565b505050565b610ea0612322565b73ffffffffffffffffffffffffffffffffffffffff16610ebe611a27565b73ffffffffffffffffffffffffffffffffffffffff1614610f14576040517f08c379a0000000000000000000000000000000000000000000000000000000008152600401610f0b9061462c565b60405180910390fd5b6000600a47610f239190614921565b9050600c60009054906101000a900473ffffffffffffffffffffffffffffffffffffffff1673ffffffffffffffffffffffffffffffffffffffff166108fc829081150290604051600060405180830381858888f19350505050158015610f8d573d6000803e3d6000fd5b508173ffffffffffffffffffffffffffffffffffffffff166108fc479081150290604051600060405180830381858888f19350505050158015610fd4573d6000803e3d6000fd5b505050565b610fe1612322565b73ffffffffffffffffffffffffffffffffffffffff16610fff611a27565b73ffffffffffffffffffffffffffffffffffffffff1614611055576040517f08c379a000000000000000000000000000000000000000000000000000000000815260040161104c9061462c565b60405180910390fd5b80600f60006101000a81548173ffffffffffffffffffffffffffffffffffffffff021916908373ffffffffffffffffffffffffffffffffffffffff16021790555050565b6000806110a5846122b6565b6110e4576040517f08c379a00000000000000000000000000000000000000000000000000000000081526004016110db9061472c565b60405180910390fd5b6000620186a0600e54856110f89190614952565b6111029190614921565b9050600f60009054906101000a900473ffffffffffffffffffffffffffffffffffffffff168192509250509250929050565b61113c612322565b73ffffffffffffffffffffffffffffffffffffffff1661115a611a27565b73ffffffffffffffffffffffffffffffffffffffff16146111b0576040517f08c379a00000000000000000000000000000000000000000000000000000000081526004016111a79061462c565b60405180910390fd5b60008273ffffffffffffffffffffffffffffffffffffffff166370a08231306040518263ffffffff1660e01b81526004016111eb9190614396565b60206040518083038186803b15801561120357600080fd5b505afa158015611217573d6000803e3d6000fd5b505050506040513d601f19601f8201168201806040525081019061123b91906136f4565b90506000600a8261124c9190614921565b90508373ffffffffffffffffffffffffffffffffffffffff1663a9059cbb600c60009054906101000a900473ffffffffffffffffffffffffffffffffffffffff16836040518363ffffffff1660e01b81526004016112ab9291906143b1565b602060405180830381600087803b1580156112c557600080fd5b505af11580156112d9573d6000803e3d6000fd5b505050506040513d601f19601f820116820180604052508101906112fd91906135e6565b508373ffffffffffffffffffffffffffffffffffffffff1663a9059cbb84838561132791906149ac565b6040518363ffffffff1660e01b8152600401611344929190614426565b602060405180830381600087803b15801561135e57600080fd5b505af1158015611372573d6000803e3d6000fd5b505050506040513d601f19601f8201168201806040525081019061139691906135e6565b5050505050565b6113a5612322565b73ffffffffffffffffffffffffffffffffffffffff166113c3611a27565b73ffffffffffffffffffffffffffffffffffffffff1614611419576040517f08c379a00000000000000000000000000000000000000000000000000000000081526004016114109061462c565b60405180910390fd5b8060098190555050565b61143e83838360405180602001604052806000815250611bf8565b505050565b61144b612322565b73ffffffffffffffffffffffffffffffffffffffff16611469611a27565b73ffffffffffffffffffffffffffffffffffffffff16146114bf576040517f08c379a00000000000000000000000000000000000000000000000000000000081526004016114b69061462c565b60405180910390fd5b806007600084815260200190815260200160002060010160006101000a81548160ff0219169083600281111561151e577f4e487b7100000000000000000000000000000000000000000000000000000000600052602160045260246000fd5b02179055505050565b61152f612322565b73ffffffffffffffffffffffffffffffffffffffff1661154d611a27565b73ffffffffffffffffffffffffffffffffffffffff16146115a3576040517f08c379a000000000000000000000000000000000000000000000000000000000815260040161159a9061462c565b60405180910390fd5b80600d90805190602001906115b9929190613120565b5050565b6000806002600084815260200190815260200160002060009054906101000a900473ffffffffffffffffffffffffffffffffffffffff169050600073ffffffffffffffffffffffffffffffffffffffff168173ffffffffffffffffffffffffffffffffffffffff161415611666576040517f08c379a000000000000000000000000000000000000000000000000000000000815260040161165d906145cc565b60405180910390fd5b80915050919050565b611677612322565b73ffffffffffffffffffffffffffffffffffffffff16611695611a27565b73ffffffffffffffffffffffffffffffffffffffff16146116eb576040517f08c379a00000000000000000000000000000000000000000000000000000000081526004016116e29061462c565b60405180910390fd5b826007600060016008546116ff91906149ac565b81526020019081526020016000206003015410611751576040517f08c379a0000000000000000000000000000000000000000000000000000000008152600401611748906146cc565b60405180910390fd5b6040518060a0016040528086815260200185600281111561179b577f4e487b7100000000000000000000000000000000000000000000000000000000600052602160045260246000fd5b81526020018481526020018381526020018281525060076000600860008154809291906117c790614b3f565b9190505581526020019081526020016000206000820151816000015560208201518160010160006101000a81548160ff02191690836002811115611834577f4e487b7100000000000000000000000000000000000000000000000000000000600052602160045260246000fd5b02179055506040820151816002015560608201518160030155608082015181600401559050505050505050565b60008073ffffffffffffffffffffffffffffffffffffffff168273ffffffffffffffffffffffffffffffffffffffff1614156118d2576040517f08c379a00000000000000000000000000000000000000000000000000000000081526004016118c9906145ac565b60405180910390fd5b600360008373ffffffffffffffffffffffffffffffffffffffff1673ffffffffffffffffffffffffffffffffffffffff168152602001908152602001600020549050919050565b611921612322565b73ffffffffffffffffffffffffffffffffffffffff1661193f611a27565b73ffffffffffffffffffffffffffffffffffffffff1614611995576040517f08c379a000000000000000000000000000000000000000000000000000000000815260040161198c9061462c565b60405180910390fd5b61199f6000612815565b565b6119a9612322565b73ffffffffffffffffffffffffffffffffffffffff166119c7611a27565b73ffffffffffffffffffffffffffffffffffffffff1614611a1d576040517f08c379a0000000000000000000000000000000000000000000000000000000008152600401611a149061462c565b60405180910390fd5b80600b8190555050565b6000600660009054906101000a900473ffffffffffffffffffffffffffffffffffffffff16905090565b611a59612322565b73ffffffffffffffffffffffffffffffffffffffff16611a77611a27565b73ffffffffffffffffffffffffffffffffffffffff1614611acd576040517f08c379a0000000000000000000000000000000000000000000000000000000008152600401611ac49061462c565b60405180910390fd5b60076000600184611ade91906148cb565b8152602001908152602001600020600201548110611b31576040517f08c379a0000000000000000000000000000000000000000000000000000000008152600401611b28906146ec565b60405180910390fd5b8060076000848152602001908152602001600020600301819055505050565b606060018054611b5f90614b0d565b80601f0160208091040260200160405190810160405280929190818152602001828054611b8b90614b0d565b8015611bd85780601f10611bad57610100808354040283529160200191611bd8565b820191906000526020600020905b815481529060010190602001808311611bbb57829003601f168201915b5050505050905090565b611bf4611bed612322565b83836128db565b5050565b611c09611c03612322565b836124db565b611c48576040517f08c379a0000000000000000000000000000000000000000000000000000000008152600401611c3f906146ac565b60405180910390fd5b611c5484848484612a48565b50505050565b6060611c65826122b6565b611ca4576040517f08c379a0000000000000000000000000000000000000000000000000000000008152600401611c9b9061466c565b60405180910390fd5b600d611caf83612aa4565b604051602001611cc0929190614367565b6040516020818303038152906040529050919050565b611cde6131a6565b600760008381526020019081526020016000206040518060a0016040529081600082015481526020016001820160009054906101000a900460ff166002811115611d51577f4e487b7100000000000000000000000000000000000000000000000000000000600052602160045260246000fd5b6002811115611d89577f4e487b7100000000000000000000000000000000000000000000000000000000600052602160045260246000fd5b815260200160028201548152602001600382015481526020016004820154815250509050919050565b611dba612322565b73ffffffffffffffffffffffffffffffffffffffff16611dd8611a27565b73ffffffffffffffffffffffffffffffffffffffff1614611e2e576040517f08c379a0000000000000000000000000000000000000000000000000000000008152600401611e259061462c565b60405180910390fd5b60006007600084815260200190815260200160002090508060030154816004015410611e8f576040517f08c379a0000000000000000000000000000000000000000000000000000000008152600401611e869061450c565b60405180910390fd5b611eb182826004016000815480929190611ea890614b3f565b91905055612c51565b505050565b611ebe612322565b73ffffffffffffffffffffffffffffffffffffffff16611edc611a27565b73ffffffffffffffffffffffffffffffffffffffff1614611f32576040517f08c379a0000000000000000000000000000000000000000000000000000000008152600401611f299061462c565b60405180910390fd5b80600e8190555050565b6000600560008473ffffffffffffffffffffffffffffffffffffffff1673ffffffffffffffffffffffffffffffffffffffff16815260200190815260200160002060008373ffffffffffffffffffffffffffffffffffffffff1673ffffffffffffffffffffffffffffffffffffffff16815260200190815260200160002060009054906101000a900460ff16905092915050565b6000600760008481526020019081526020016000209050600280811115612020577f4e487b7100000000000000000000000000000000000000000000000000000000600052602160045260246000fd5b8160010160009054906101000a900460ff16600281111561206a577f4e487b7100000000000000000000000000000000000000000000000000000000600052602160045260246000fd5b146120aa576040517f08c379a00000000000000000000000000000000000000000000000000000000081526004016120a19061476c565b60405180910390fd5b6120b481836123fa565b505050565b6120c1612322565b73ffffffffffffffffffffffffffffffffffffffff166120df611a27565b73ffffffffffffffffffffffffffffffffffffffff1614612135576040517f08c379a000000000000000000000000000000000000000000000000000000000815260040161212c9061462c565b60405180910390fd5b600073ffffffffffffffffffffffffffffffffffffffff168173ffffffffffffffffffffffffffffffffffffffff1614156121a5576040517f08c379a000000000000000000000000000000000000000000000000000000000815260040161219c906144ac565b60405180910390fd5b6121ae81612815565b50565b6121b9612322565b73ffffffffffffffffffffffffffffffffffffffff166121d7611a27565b73ffffffffffffffffffffffffffffffffffffffff161461222d576040517f08c379a00000000000000000000000000000000000000000000000000000000081526004016122249061462c565b60405180910390fd5b8060076000848152602001908152602001600020600001819055505050565b60007f01ffc9a7000000000000000000000000000000000000000000000000000000007bffffffffffffffffffffffffffffffffffffffffffffffffffffffff1916827bffffffffffffffffffffffffffffffffffffffffffffffffffffffff1916149050919050565b60008073ffffffffffffffffffffffffffffffffffffffff166002600084815260200190815260200160002060009054906101000a900473ffffffffffffffffffffffffffffffffffffffff1673ffffffffffffffffffffffffffffffffffffffff1614159050919050565b600033905090565b816004600083815260200190815260200160002060006101000a81548173ffffffffffffffffffffffffffffffffffffffff021916908373ffffffffffffffffffffffffffffffffffffffff160217905550808273ffffffffffffffffffffffffffffffffffffffff1661239d836115bd565b73ffffffffffffffffffffffffffffffffffffffff167f8c5be1e5ebec7d5bd14f71427d1e84f3dd0314c0f7b2291e5b200ac8c7c3b92560405160405180910390a45050565b6000826123f08584612c6f565b1490509392505050565b81600001548161240a9190614952565b341461244b576040517f08c379a00000000000000000000000000000000000000000000000000000000081526004016124429061474c565b60405180910390fd5b816003015482600401541115612496576040517f08c379a000000000000000000000000000000000000000000000000000000000815260040161248d9061450c565b60405180910390fd5b60005b818110156124d6576124c3338460040160008154809291906124ba90614b3f565b91905055612c51565b80806124ce90614b3f565b915050612499565b505050565b60006124e6826122b6565b612525576040517f08c379a000000000000000000000000000000000000000000000000000000000815260040161251c9061456c565b60405180910390fd5b6000612530836115bd565b90508073ffffffffffffffffffffffffffffffffffffffff168473ffffffffffffffffffffffffffffffffffffffff16148061259f57508373ffffffffffffffffffffffffffffffffffffffff166125878461092b565b73ffffffffffffffffffffffffffffffffffffffff16145b806125b057506125af8185611f3c565b5b91505092915050565b8273ffffffffffffffffffffffffffffffffffffffff166125d9826115bd565b73ffffffffffffffffffffffffffffffffffffffff161461262f576040517f08c379a00000000000000000000000000000000000000000000000000000000081526004016126269061464c565b60405180910390fd5b600073ffffffffffffffffffffffffffffffffffffffff168273ffffffffffffffffffffffffffffffffffffffff16141561269f576040517f08c379a00000000000000000000000000000000000000000000000000000000081526004016126969061452c565b60405180910390fd5b6126aa838383612d48565b6126b560008261232a565b6001600360008573ffffffffffffffffffffffffffffffffffffffff1673ffffffffffffffffffffffffffffffffffffffff168152602001908152602001600020600082825461270591906149ac565b925050819055506001600360008473ffffffffffffffffffffffffffffffffffffffff1673ffffffffffffffffffffffffffffffffffffffff168152602001908152602001600020600082825461275c91906148cb565b92505081905550816002600083815260200190815260200160002060006101000a81548173ffffffffffffffffffffffffffffffffffffffff021916908373ffffffffffffffffffffffffffffffffffffffff160217905550808273ffffffffffffffffffffffffffffffffffffffff168473ffffffffffffffffffffffffffffffffffffffff167fddf252ad1be2c89b69c2b068fc378daa952ba7f163c4a11628f55a4df523b3ef60405160405180910390a4505050565b6000600660009054906101000a900473ffffffffffffffffffffffffffffffffffffffff16905081600660006101000a81548173ffffffffffffffffffffffffffffffffffffffff021916908373ffffffffffffffffffffffffffffffffffffffff1602179055508173ffffffffffffffffffffffffffffffffffffffff168173ffffffffffffffffffffffffffffffffffffffff167f8be0079c531659141344cd1fd0a4f28419497f9722a3daafe3b4186f6b6457e060405160405180910390a35050565b8173ffffffffffffffffffffffffffffffffffffffff168373ffffffffffffffffffffffffffffffffffffffff16141561294a576040517f08c379a00000000000000000000000000000000000000000000000000000000081526004016129419061454c565b60405180910390fd5b80600560008573ffffffffffffffffffffffffffffffffffffffff1673ffffffffffffffffffffffffffffffffffffffff16815260200190815260200160002060008473ffffffffffffffffffffffffffffffffffffffff1673ffffffffffffffffffffffffffffffffffffffff16815260200190815260200160002060006101000a81548160ff0219169083151502179055508173ffffffffffffffffffffffffffffffffffffffff168373ffffffffffffffffffffffffffffffffffffffff167f17307eab39ab6107e8899845ad3d59bd9653f200f220920489ca2b5937696c3183604051612a3b919061444f565b60405180910390a3505050565b612a538484846125b9565b612a5f84848484612d4d565b612a9e576040517f08c379a0000000000000000000000000000000000000000000000000000000008152600401612a959061448c565b60405180910390fd5b50505050565b60606000821415612aec576040518060400160405280600181526020017f30000000000000000000000000000000000000000000000000000000000000008152509050612c4c565b600082905060005b60008214612b1e578080612b0790614b3f565b915050600a82612b179190614921565b9150612af4565b60008167ffffffffffffffff811115612b60577f4e487b7100000000000000000000000000000000000000000000000000000000600052604160045260246000fd5b6040519080825280601f01601f191660200182016040528015612b925781602001600182028036833780820191505090505b5090505b60008514612c4557600182612bab91906149ac565b9150600a85612bba9190614bb6565b6030612bc691906148cb565b60f81b818381518110612c02577f4e487b7100000000000000000000000000000000000000000000000000000000600052603260045260246000fd5b60200101907effffffffffffffffffffffffffffffffffffffffffffffffffffffffffffff1916908160001a905350600a85612c3e9190614921565b9450612b96565b8093505050505b919050565b612c6b828260405180602001604052806000815250612ee4565b5050565b60008082905060005b8451811015612d3d576000858281518110612cbc577f4e487b7100000000000000000000000000000000000000000000000000000000600052603260045260246000fd5b60200260200101519050808311612cfd578281604051602001612ce092919061433b565b604051602081830303815290604052805190602001209250612d29565b8083604051602001612d1092919061433b565b6040516020818303038152906040528051906020012092505b508080612d3590614b3f565b915050612c78565b508091505092915050565b505050565b6000612d6e8473ffffffffffffffffffffffffffffffffffffffff16612f3f565b15612ed7578373ffffffffffffffffffffffffffffffffffffffff1663150b7a02612d97612322565b8786866040518563ffffffff1660e01b8152600401612db994939291906143da565b602060405180830381600087803b158015612dd357600080fd5b505af1925050508015612e0457506040513d601f19601f82011682018060405250810190612e019190613661565b60015b612e87573d8060008114612e34576040519150601f19603f3d011682016040523d82523d6000602084013e612e39565b606091505b50600081511415612e7f576040517f08c379a0000000000000000000000000000000000000000000000000000000008152600401612e769061448c565b60405180910390fd5b805181602001fd5b63150b7a0260e01b7bffffffffffffffffffffffffffffffffffffffffffffffffffffffff1916817bffffffffffffffffffffffffffffffffffffffffffffffffffffffff191614915050612edc565b600190505b949350505050565b612eee8383612f52565b612efb6000848484612d4d565b612f3a576040517f08c379a0000000000000000000000000000000000000000000000000000000008152600401612f319061448c565b60405180910390fd5b505050565b600080823b905060008111915050919050565b600073ffffffffffffffffffffffffffffffffffffffff168273ffffffffffffffffffffffffffffffffffffffff161415612fc2576040517f08c379a0000000000000000000000000000000000000000000000000000000008152600401612fb9906145ec565b60405180910390fd5b612fcb816122b6565b1561300b576040517f08c379a0000000000000000000000000000000000000000000000000000000008152600401613002906144ec565b60405180910390fd5b61301760008383612d48565b6001600360008473ffffffffffffffffffffffffffffffffffffffff1673ffffffffffffffffffffffffffffffffffffffff168152602001908152602001600020600082825461306791906148cb565b92505081905550816002600083815260200190815260200160002060006101000a81548173ffffffffffffffffffffffffffffffffffffffff021916908373ffffffffffffffffffffffffffffffffffffffff160217905550808273ffffffffffffffffffffffffffffffffffffffff16600073ffffffffffffffffffffffffffffffffffffffff167fddf252ad1be2c89b69c2b068fc378daa952ba7f163c4a11628f55a4df523b3ef60405160405180910390a45050565b82805461312c90614b0d565b90600052602060002090601f01602090048101928261314e5760008555613195565b82601f1061316757805160ff1916838001178555613195565b82800160010185558215613195579182015b82811115613194578251825591602001919060010190613179565b5b5090506131a2919061320d565b5090565b6040518060a0016040528060008152602001600060028111156131f2577f4e487b7100000000000000000000000000000000000000000000000000000000600052602160045260246000fd5b81526020016000815260200160008152602001600081525090565b5b8082111561322657600081600090555060010161320e565b5090565b600061323d61323884614813565b6147e2565b90508281526020810184848401111561325557600080fd5b613260848285614acb565b509392505050565b600061327b61327684614843565b6147e2565b90508281526020810184848401111561329357600080fd5b61329e848285614acb565b509392505050565b6000813590506132b581614d04565b92915050565b6000813590506132ca81614d1b565b92915050565b60008083601f8401126132e257600080fd5b8235905067ffffffffffffffff8111156132fb57600080fd5b60208301915083602082028301111561331357600080fd5b9250929050565b60008135905061332981614d32565b92915050565b60008151905061333e81614d32565b92915050565b60008135905061335381614d49565b92915050565b60008135905061336881614d60565b92915050565b60008151905061337d81614d60565b92915050565b600082601f83011261339457600080fd5b81356133a484826020860161322a565b91505092915050565b6000813590506133bc81614d77565b92915050565b600082601f8301126133d357600080fd5b81356133e3848260208601613268565b91505092915050565b6000813590506133fb81614d87565b92915050565b60008151905061341081614d87565b92915050565b60006020828403121561342857600080fd5b6000613436848285016132a6565b91505092915050565b60006020828403121561345157600080fd5b600061345f848285016132bb565b91505092915050565b6000806040838503121561347b57600080fd5b6000613489858286016132a6565b925050602061349a858286016132a6565b9150509250929050565b6000806000606084860312156134b957600080fd5b60006134c7868287016132a6565b93505060206134d8868287016132a6565b92505060406134e9868287016133ec565b9150509250925092565b6000806000806080858703121561350957600080fd5b6000613517878288016132a6565b9450506020613528878288016132a6565b9350506040613539878288016133ec565b925050606085013567ffffffffffffffff81111561355657600080fd5b61356287828801613383565b91505092959194509250565b6000806040838503121561358157600080fd5b600061358f858286016132a6565b92505060206135a08582860161331a565b9150509250929050565b600080604083850312156135bd57600080fd5b60006135cb858286016132a6565b92505060206135dc858286016133ec565b9150509250929050565b6000602082840312156135f857600080fd5b60006136068482850161332f565b91505092915050565b60006020828403121561362157600080fd5b600061362f84828501613344565b91505092915050565b60006020828403121561364a57600080fd5b600061365884828501613359565b91505092915050565b60006020828403121561367357600080fd5b60006136818482850161336e565b91505092915050565b60006020828403121561369c57600080fd5b600082013567ffffffffffffffff8111156136b657600080fd5b6136c2848285016133c2565b91505092915050565b6000602082840312156136dd57600080fd5b60006136eb848285016133ec565b91505092915050565b60006020828403121561370657600080fd5b600061371484828501613401565b91505092915050565b6000806040838503121561373057600080fd5b600061373e858286016133ec565b925050602061374f858286016132a6565b9150509250929050565b60008060006040848603121561376e57600080fd5b600061377c868287016133ec565b935050602084013567ffffffffffffffff81111561379957600080fd5b6137a5868287016132d0565b92509250509250925092565b600080604083850312156137c457600080fd5b60006137d2858286016133ec565b92505060206137e3858286016133ad565b9150509250929050565b600080600080600060a0868803121561380557600080fd5b6000613813888289016133ec565b9550506020613824888289016133ad565b9450506040613835888289016133ec565b9350506060613846888289016133ec565b9250506080613857888289016133ec565b9150509295509295909350565b6000806040838503121561387757600080fd5b6000613885858286016133ec565b9250506020613896858286016133ec565b9150509250929050565b6138a981614a83565b82525050565b6138b8816149e0565b82525050565b6138cf6138ca826149e0565b614b88565b82525050565b6138de81614a04565b82525050565b6138f56138f082614a10565b614b9a565b82525050565b600061390682614888565b613910818561489e565b9350613920818560208601614ada565b61392981614cd2565b840191505092915050565b61393d81614a95565b82525050565b600061394e82614893565b61395881856148af565b9350613968818560208601614ada565b61397181614cd2565b840191505092915050565b600061398782614893565b61399181856148c0565b93506139a1818560208601614ada565b80840191505092915050565b600081546139ba81614b0d565b6139c481866148c0565b945060018216600081146139df57600181146139f057613a23565b60ff19831686528186019350613a23565b6139f985614873565b60005b83811015613a1b578154818901526001820191506020810190506139fc565b838801955050505b50505092915050565b6000613a396032836148af565b91507f4552433732313a207472616e7366657220746f206e6f6e20455243373231526560008301527f63656976657220696d706c656d656e74657200000000000000000000000000006020830152604082019050919050565b6000613a9f6026836148af565b91507f4f776e61626c653a206e6577206f776e657220697320746865207a65726f206160008301527f64647265737300000000000000000000000000000000000000000000000000006020830152604082019050919050565b6000613b056014836148af565b91507f696e76616c6964206d65726b6c652070726f6f660000000000000000000000006000830152602082019050919050565b6000613b45601c836148af565b91507f4552433732313a20746f6b656e20616c7265616479206d696e746564000000006000830152602082019050919050565b6000613b85600e836148af565b91507f6d617820696420726561636865640000000000000000000000000000000000006000830152602082019050919050565b6000613bc56024836148af565b91507f4552433732313a207472616e7366657220746f20746865207a65726f2061646460008301527f72657373000000000000000000000000000000000000000000000000000000006020830152604082019050919050565b6000613c2b6019836148af565b91507f4552433732313a20617070726f766520746f2063616c6c6572000000000000006000830152602082019050919050565b6000613c6b602c836148af565b91507f4552433732313a206f70657261746f7220717565727920666f72206e6f6e657860008301527f697374656e7420746f6b656e00000000000000000000000000000000000000006020830152604082019050919050565b6000613cd16038836148af565b91507f4552433732313a20617070726f76652063616c6c6572206973206e6f74206f7760008301527f6e6572206e6f7220617070726f76656420666f7220616c6c00000000000000006020830152604082019050919050565b6000613d37602a836148af565b91507f4552433732313a2062616c616e636520717565727920666f7220746865207a6560008301527f726f2061646472657373000000000000000000000000000000000000000000006020830152604082019050919050565b6000613d9d6029836148af565b91507f4552433732313a206f776e657220717565727920666f72206e6f6e657869737460008301527f656e7420746f6b656e00000000000000000000000000000000000000000000006020830152604082019050919050565b6000613e036020836148af565b91507f4552433732313a206d696e7420746f20746865207a65726f20616464726573736000830152602082019050919050565b6000613e43602c836148af565b91507f4552433732313a20617070726f76656420717565727920666f72206e6f6e657860008301527f697374656e7420746f6b656e00000000000000000000000000000000000000006020830152604082019050919050565b6000613ea96005836148c0565b91507f2e6a736f6e0000000000000000000000000000000000000000000000000000006000830152600582019050919050565b6000613ee96020836148af565b91507f4f776e61626c653a2063616c6c6572206973206e6f7420746865206f776e65726000830152602082019050919050565b6000613f296029836148af565b91507f4552433732313a207472616e73666572206f6620746f6b656e2074686174206960008301527f73206e6f74206f776e00000000000000000000000000000000000000000000006020830152604082019050919050565b6000613f8f602f836148af565b91507f4552433732314d657461646174613a2055524920717565727920666f72206e6f60008301527f6e6578697374656e7420746f6b656e00000000000000000000000000000000006020830152604082019050919050565b6000613ff56021836148af565b91507f4552433732313a20617070726f76616c20746f2063757272656e74206f776e6560008301527f72000000000000000000000000000000000000000000000000000000000000006020830152604082019050919050565b600061405b6031836148af565b91507f4552433732313a207472616e736665722063616c6c6572206973206e6f74206f60008301527f776e6572206e6f7220617070726f7665640000000000000000000000000000006020830152604082019050919050565b60006140c16029836148af565b91507f6d696e4964206d75737420626520686967686572207468616e2070726576207460008301527f696572206d6178496400000000000000000000000000000000000000000000006020830152604082019050919050565b6000614127601a836148af565b91507f6f7665726c617070696e672077697468206e65787420746965720000000000006000830152602082019050919050565b60006141676016836148af565b91507f70726573616c65206d696e74696e6720636c6f736564000000000000000000006000830152602082019050919050565b60006141a76011836148af565b91507f6e6f6e6578697374616e7420746f6b656e0000000000000000000000000000006000830152602082019050919050565b60006141e7600f836148af565b91507f696e636f72726563742076616c756500000000000000000000000000000000006000830152602082019050919050565b60006142276015836148af565b91507f7075626c6963206d696e74696e6720636c6f73656400000000000000000000006000830152602082019050919050565b6000614267600e836148af565b91507f616c7265616479206d696e7465640000000000000000000000000000000000006000830152602082019050919050565b60a0820160008201516142b06000850182614302565b5060208201516142c36020850182613934565b5060408201516142d66040850182614302565b5060608201516142e96060850182614302565b5060808201516142fc6080850182614302565b50505050565b61430b81614a79565b82525050565b61431a81614a79565b82525050565b600061432c82846138be565b60148201915081905092915050565b600061434782856138e4565b60208201915061435782846138e4565b6020820191508190509392505050565b600061437382856139ad565b915061437f828461397c565b915061438a82613e9c565b91508190509392505050565b60006020820190506143ab60008301846138af565b92915050565b60006040820190506143c660008301856138a0565b6143d36020830184614311565b9392505050565b60006080820190506143ef60008301876138af565b6143fc60208301866138af565b6144096040830185614311565b818103606083015261441b81846138fb565b905095945050505050565b600060408201905061443b60008301856138af565b6144486020830184614311565b9392505050565b600060208201905061446460008301846138d5565b92915050565b600060208201905081810360008301526144848184613943565b905092915050565b600060208201905081810360008301526144a581613a2c565b9050919050565b600060208201905081810360008301526144c581613a92565b9050919050565b600060208201905081810360008301526144e581613af8565b9050919050565b6000602082019050818103600083015261450581613b38565b9050919050565b6000602082019050818103600083015261452581613b78565b9050919050565b6000602082019050818103600083015261454581613bb8565b9050919050565b6000602082019050818103600083015261456581613c1e565b9050919050565b6000602082019050818103600083015261458581613c5e565b9050919050565b600060208201905081810360008301526145a581613cc4565b9050919050565b600060208201905081810360008301526145c581613d2a565b9050919050565b600060208201905081810360008301526145e581613d90565b9050919050565b6000602082019050818103600083015261460581613df6565b9050919050565b6000602082019050818103600083015261462581613e36565b9050919050565b6000602082019050818103600083015261464581613edc565b9050919050565b6000602082019050818103600083015261466581613f1c565b9050919050565b6000602082019050818103600083015261468581613f82565b9050919050565b600060208201905081810360008301526146a581613fe8565b9050919050565b600060208201905081810360008301526146c58161404e565b9050919050565b600060208201905081810360008301526146e5816140b4565b9050919050565b600060208201905081810360008301526147058161411a565b9050919050565b600060208201905081810360008301526147258161415a565b9050919050565b600060208201905081810360008301526147458161419a565b9050919050565b60006020820190508181036000830152614765816141da565b9050919050565b600060208201905081810360008301526147858161421a565b9050919050565b600060208201905081810360008301526147a58161425a565b9050919050565b600060a0820190506147c1600083018461429a565b92915050565b60006020820190506147dc6000830184614311565b92915050565b6000604051905081810181811067ffffffffffffffff8211171561480957614808614ca3565b5b8060405250919050565b600067ffffffffffffffff82111561482e5761482d614ca3565b5b601f19601f8301169050602081019050919050565b600067ffffffffffffffff82111561485e5761485d614ca3565b5b601f19601f8301169050602081019050919050565b60008190508160005260206000209050919050565b600081519050919050565b600081519050919050565b600082825260208201905092915050565b600082825260208201905092915050565b600081905092915050565b60006148d682614a79565b91506148e183614a79565b9250827fffffffffffffffffffffffffffffffffffffffffffffffffffffffffffffffff0382111561491657614915614be7565b5b828201905092915050565b600061492c82614a79565b915061493783614a79565b92508261494757614946614c16565b5b828204905092915050565b600061495d82614a79565b915061496883614a79565b9250817fffffffffffffffffffffffffffffffffffffffffffffffffffffffffffffffff04831182151516156149a1576149a0614be7565b5b828202905092915050565b60006149b782614a79565b91506149c283614a79565b9250828210156149d5576149d4614be7565b5b828203905092915050565b60006149eb82614a59565b9050919050565b60006149fd82614a59565b9050919050565b60008115159050919050565b6000819050919050565b60007fffffffff0000000000000000000000000000000000000000000000000000000082169050919050565b6000819050614a5482614cf0565b919050565b600073ffffffffffffffffffffffffffffffffffffffff82169050919050565b6000819050919050565b6000614a8e82614aa7565b9050919050565b6000614aa082614a46565b9050919050565b6000614ab282614ab9565b9050919050565b6000614ac482614a59565b9050919050565b82818337600083830152505050565b60005b83811015614af8578082015181840152602081019050614add565b83811115614b07576000848401525b50505050565b60006002820490506001821680614b2557607f821691505b60208210811415614b3957614b38614c74565b5b50919050565b6000614b4a82614a79565b91507fffffffffffffffffffffffffffffffffffffffffffffffffffffffffffffffff821415614b7d57614b7c614be7565b5b600182019050919050565b6000614b9382614ba4565b9050919050565b6000819050919050565b6000614baf82614ce3565b9050919050565b6000614bc182614a79565b9150614bcc83614a79565b925082614bdc57614bdb614c16565b5b828206905092915050565b7f4e487b7100000000000000000000000000000000000000000000000000000000600052601160045260246000fd5b7f4e487b7100000000000000000000000000000000000000000000000000000000600052601260045260246000fd5b7f4e487b7100000000000000000000000000000000000000000000000000000000600052602160045260246000fd5b7f4e487b7100000000000000000000000000000000000000000000000000000000600052602260045260246000fd5b7f4e487b7100000000000000000000000000000000000000000000000000000000600052604160045260246000fd5b6000601f19601f8301169050919050565b60008160601b9050919050565b60038110614d0157614d00614c45565b5b50565b614d0d816149e0565b8114614d1857600080fd5b50565b614d24816149f2565b8114614d2f57600080fd5b50565b614d3b81614a04565b8114614d4657600080fd5b50565b614d5281614a10565b8114614d5d57600080fd5b50565b614d6981614a1a565b8114614d7457600080fd5b50565b60038110614d8457600080fd5b50565b614d9081614a79565b8114614d9b57600080fd5b5056fea264697066735822122079b36c14e58ff1cc212f5db2bf179b600c94f9ee9a54b772900a0072270379f064736f6c63430008000033",
  "linkReferences": {},
  "deployedLinkReferences": {}
}