{
  "abi": [
    {
      "inputs": [
        {
          "internalType": "bytes32",
          "name": "_root",
          "type": "bytes32"
        },
        {
          "internalType": "string",
          "name": "_baseURI",
          "type": "string"
        },
        {
          "internalType": "address",
          "name": "_royaltyWallet",
          "type": "address"
        }
      ],
      "stateMutability": "nonpayable",
      "type": "constructor"
    },
    {
      "anonymous": false,
      "inputs": [
        {
          "indexed": true,
          "internalType": "address",
          "name": "owner",
          "type": "address"
        },
        {
          "indexed": true,
          "internalType": "address",
          "name": "approved",
          "type": "address"
        },
        {
          "indexed": true,
          "internalType": "uint256",
          "name": "tokenId",
          "type": "uint256"
        }
      ],
      "name": "Approval",
      "type": "event"
    },
    {
      "anonymous": false,
      "inputs": [
        {
          "indexed": true,
          "internalType": "address",
          "name": "owner",
          "type": "address"
        },
        {
          "indexed": true,
          "internalType": "address",
          "name": "operator",
          "type": "address"
        },
        {
          "indexed": false,
          "internalType": "bool",
          "name": "approved",
          "type": "bool"
        }
      ],
      "name": "ApprovalForAll",
      "type": "event"
    },
    {
      "anonymous": false,
      "inputs": [
        {
          "indexed": true,
          "internalType": "address",
          "name": "previousOwner",
          "type": "address"
        },
        {
          "indexed": true,
          "internalType": "address",
          "name": "newOwner",
          "type": "address"
        }
      ],
      "name": "OwnershipTransferred",
      "type": "event"
    },
    {
      "anonymous": false,
      "inputs": [
        {
          "indexed": true,
          "internalType": "address",
          "name": "from",
          "type": "address"
        },
        {
          "indexed": true,
          "internalType": "address",
          "name": "to",
          "type": "address"
        },
        {
          "indexed": true,
          "internalType": "uint256",
          "name": "tokenId",
          "type": "uint256"
        }
      ],
      "name": "Transfer",
      "type": "event"
    },
    {
      "inputs": [],
      "name": "PRICE",
      "outputs": [
        {
          "internalType": "uint256",
          "name": "",
          "type": "uint256"
        }
      ],
      "stateMutability": "view",
      "type": "function"
    },
    {
      "inputs": [
        {
          "internalType": "address",
          "name": "to",
          "type": "address"
        },
        {
          "internalType": "uint256",
          "name": "tokenId",
          "type": "uint256"
        }
      ],
      "name": "approve",
      "outputs": [],
      "stateMutability": "nonpayable",
      "type": "function"
    },
    {
      "inputs": [
        {
          "internalType": "address",
          "name": "owner",
          "type": "address"
        }
      ],
      "name": "balanceOf",
      "outputs": [
        {
          "internalType": "uint256",
          "name": "",
          "type": "uint256"
        }
      ],
      "stateMutability": "view",
      "type": "function"
    },
    {
      "inputs": [],
      "name": "closeMinting",
      "outputs": [],
      "stateMutability": "nonpayable",
      "type": "function"
    },
    {
      "inputs": [
        {
          "internalType": "uint256",
          "name": "tokenId",
          "type": "uint256"
        }
      ],
      "name": "getApproved",
      "outputs": [
        {
          "internalType": "address",
          "name": "",
          "type": "address"
        }
      ],
      "stateMutability": "view",
      "type": "function"
    },
    {
      "inputs": [],
      "name": "getMintStatus",
      "outputs": [
        {
          "internalType": "enum BenMezrichProject3.MintStatus",
          "name": "",
          "type": "uint8"
        }
      ],
      "stateMutability": "view",
      "type": "function"
    },
    {
      "inputs": [
        {
          "internalType": "address",
          "name": "owner",
          "type": "address"
        },
        {
          "internalType": "address",
          "name": "operator",
          "type": "address"
        }
      ],
      "name": "isApprovedForAll",
      "outputs": [
        {
          "internalType": "bool",
          "name": "",
          "type": "bool"
        }
      ],
      "stateMutability": "view",
      "type": "function"
    },
    {
      "inputs": [
        {
          "internalType": "address",
          "name": "",
          "type": "address"
        }
      ],
      "name": "mintedWallets",
      "outputs": [
        {
          "internalType": "bool",
          "name": "",
          "type": "bool"
        }
      ],
      "stateMutability": "view",
      "type": "function"
    },
    {
      "inputs": [],
      "name": "name",
      "outputs": [
        {
          "internalType": "string",
          "name": "",
          "type": "string"
        }
      ],
      "stateMutability": "view",
      "type": "function"
    },
    {
      "inputs": [],
      "name": "openPublic",
      "outputs": [],
      "stateMutability": "nonpayable",
      "type": "function"
    },
    {
      "inputs": [],
      "name": "openWhitelist",
      "outputs": [],
      "stateMutability": "nonpayable",
      "type": "function"
    },
    {
      "inputs": [],
      "name": "owner",
      "outputs": [
        {
          "internalType": "address",
          "name": "",
          "type": "address"
        }
      ],
      "stateMutability": "view",
      "type": "function"
    },
    {
      "inputs": [
        {
          "internalType": "uint256",
          "name": "tokenId",
          "type": "uint256"
        }
      ],
      "name": "ownerOf",
      "outputs": [
        {
          "internalType": "address",
          "name": "",
          "type": "address"
        }
      ],
      "stateMutability": "view",
      "type": "function"
    },
    {
      "inputs": [
        {
          "internalType": "uint256",
          "name": "quantity",
          "type": "uint256"
        }
      ],
      "name": "publicMint",
      "outputs": [],
      "stateMutability": "payable",
      "type": "function"
    },
    {
      "inputs": [],
      "name": "renounceOwnership",
      "outputs": [],
      "stateMutability": "nonpayable",
      "type": "function"
    },
    {
      "inputs": [
        {
          "internalType": "uint256",
          "name": "_tokenId",
          "type": "uint256"
        },
        {
          "internalType": "uint256",
          "name": "_salePrice",
          "type": "uint256"
        }
      ],
      "name": "royaltyInfo",
      "outputs": [
        {
          "internalType": "address",
          "name": "receiver",
          "type": "address"
        },
        {
          "internalType": "uint256",
          "name": "royaltyAmount",
          "type": "uint256"
        }
      ],
      "stateMutability": "view",
      "type": "function"
    },
    {
      "inputs": [
        {
          "internalType": "address",
          "name": "from",
          "type": "address"
        },
        {
          "internalType": "address",
          "name": "to",
          "type": "address"
        },
        {
          "internalType": "uint256",
          "name": "tokenId",
          "type": "uint256"
        }
      ],
      "name": "safeTransferFrom",
      "outputs": [],
      "stateMutability": "nonpayable",
      "type": "function"
    },
    {
      "inputs": [
        {
          "internalType": "address",
          "name": "from",
          "type": "address"
        },
        {
          "internalType": "address",
          "name": "to",
          "type": "address"
        },
        {
          "internalType": "uint256",
          "name": "tokenId",
          "type": "uint256"
        },
        {
          "internalType": "bytes",
          "name": "data",
          "type": "bytes"
        }
      ],
      "name": "safeTransferFrom",
      "outputs": [],
      "stateMutability": "nonpayable",
      "type": "function"
    },
    {
      "inputs": [
        {
          "internalType": "address",
          "name": "operator",
          "type": "address"
        },
        {
          "internalType": "bool",
          "name": "approved",
          "type": "bool"
        }
      ],
      "name": "setApprovalForAll",
      "outputs": [],
      "stateMutability": "nonpayable",
      "type": "function"
    },
    {
      "inputs": [
        {
          "internalType": "string",
          "name": "_newBaseURI",
          "type": "string"
        }
      ],
      "name": "setBaseURI",
      "outputs": [],
      "stateMutability": "nonpayable",
      "type": "function"
    },
    {
      "inputs": [
        {
          "internalType": "bytes4",
          "name": "interfaceId",
          "type": "bytes4"
        }
      ],
      "name": "supportsInterface",
      "outputs": [
        {
          "internalType": "bool",
          "name": "",
          "type": "bool"
        }
      ],
      "stateMutability": "view",
      "type": "function"
    },
    {
      "inputs": [],
      "name": "symbol",
      "outputs": [
        {
          "internalType": "string",
          "name": "",
          "type": "string"
        }
      ],
      "stateMutability": "view",
      "type": "function"
    },
    {
      "inputs": [
        {
          "internalType": "uint256",
          "name": "tokenId",
          "type": "uint256"
        }
      ],
      "name": "tokenURI",
      "outputs": [
        {
          "internalType": "string",
          "name": "",
          "type": "string"
        }
      ],
      "stateMutability": "view",
      "type": "function"
    },
    {
      "inputs": [
        {
          "internalType": "address",
          "name": "from",
          "type": "address"
        },
        {
          "internalType": "address",
          "name": "to",
          "type": "address"
        },
        {
          "internalType": "uint256",
          "name": "tokenId",
          "type": "uint256"
        }
      ],
      "name": "transferFrom",
      "outputs": [],
      "stateMutability": "nonpayable",
      "type": "function"
    },
    {
      "inputs": [
        {
          "internalType": "address",
          "name": "newOwner",
          "type": "address"
        }
      ],
      "name": "transferOwnership",
      "outputs": [],
      "stateMutability": "nonpayable",
      "type": "function"
    },
    {
      "inputs": [
        {
          "internalType": "string",
          "name": "_newBaseURI",
          "type": "string"
        },
        {
          "internalType": "bool",
          "name": "_revealed",
          "type": "bool"
        }
      ],
      "name": "updateRevealed",
      "outputs": [],
      "stateMutability": "nonpayable",
      "type": "function"
    },
    {
      "inputs": [
        {
          "internalType": "bytes32",
          "name": "newRoot",
          "type": "bytes32"
        }
      ],
      "name": "updateRoot",
      "outputs": [],
      "stateMutability": "nonpayable",
      "type": "function"
    },
    {
      "inputs": [
        {
          "internalType": "uint256",
          "name": "_rate",
          "type": "uint256"
        }
      ],
      "name": "updateRoyaltyRate",
      "outputs": [],
      "stateMutability": "nonpayable",
      "type": "function"
    },
    {
      "inputs": [
        {
          "internalType": "address payable",
          "name": "_wallet",
          "type": "address"
        }
      ],
      "name": "updateRoyaltyWallet",
      "outputs": [],
      "stateMutability": "nonpayable",
      "type": "function"
    },
    {
      "inputs": [
        {
          "internalType": "bytes32[]",
          "name": "proof",
          "type": "bytes32[]"
        },
        {
          "internalType": "uint256",
          "name": "quantity",
          "type": "uint256"
        }
      ],
      "name": "whitelistMint",
      "outputs": [],
      "stateMutability": "payable",
      "type": "function"
    },
    {
      "inputs": [],
      "name": "withdraw",
      "outputs": [],
      "stateMutability": "nonpayable",
      "type": "function"
    },
    {
      "inputs": [
        {
          "internalType": "address",
          "name": "token",
          "type": "address"
        }
      ],
      "name": "withdrawToken",
      "outputs": [],
      "stateMutability": "nonpayable",
      "type": "function"
    }
  ],
  "bytecode": {
    "object": "0x6080604052611770600755611d4c600e553480156200001d57600080fd5b50604051620028e9380380620028e9833981016040819052620000409162000372565b6040518060400160405280601581526020017f42656e204d657a726963682050726f6a656374203300000000000000000000008152506040518060400160405280600681526020016542454e46543360d01b8152508160009081620000a69190620004fc565b506001620000b58282620004fc565b505050620000d2620000cc6200015660201b60201c565b6200015a565b6009839055600a620000e58382620004fc565b50600f80546001600160a01b0319166001600160a01b03831617905560005b60648110156200014c576200013773fe4bca1f6cb50e63d6ac7efd1878e3d9110a8dde62000131620001ac565b620001e1565b806200014381620005de565b91505062000104565b5050505062000615565b3390565b600680546001600160a01b038381166001600160a01b0319831681179093556040519116919082907f8be0079c531659141344cd1fd0a4f28419497f9722a3daafe3b4186f6b6457e090600090a35050565b6000620001c5600c6200032d60201b6200108a1760201c565b620001dc600c6200033660201b620010931760201c565b905090565b6001600160a01b0382166200023d5760405162461bcd60e51b815260206004820181905260248201527f4552433732313a206d696e7420746f20746865207a65726f206164647265737360448201526064015b60405180910390fd5b6000818152600260205260409020546001600160a01b031615620002a45760405162461bcd60e51b815260206004820152601c60248201527f4552433732313a20746f6b656e20616c7265616479206d696e74656400000000604482015260640162000234565b6001600160a01b0382166000908152600360205260408120805460019290620002cf908490620005fa565b909155505060008181526002602052604080822080546001600160a01b0319166001600160a01b03861690811790915590518392907fddf252ad1be2c89b69c2b068fc378daa952ba7f163c4a11628f55a4df523b3ef908290a45050565b80546001019055565b5490565b505050565b634e487b7160e01b600052604160045260246000fd5b80516001600160a01b03811681146200036d57600080fd5b919050565b6000806000606084860312156200038857600080fd5b8351602080860151919450906001600160401b0380821115620003aa57600080fd5b818701915087601f830112620003bf57600080fd5b815181811115620003d457620003d46200033f565b604051601f8201601f19908116603f01168101908382118183101715620003ff57620003ff6200033f565b816040528281528a868487010111156200041857600080fd5b600093505b828410156200043c57848401860151818501870152928501926200041d565b828411156200044e5760008684830101525b809750505050505050620004656040850162000355565b90509250925092565b600181811c908216806200048357607f821691505b602082108103620004a457634e487b7160e01b600052602260045260246000fd5b50919050565b601f8211156200033a57600081815260208120601f850160051c81016020861015620004d35750805b601f850160051c820191505b81811015620004f457828155600101620004df565b505050505050565b81516001600160401b038111156200051857620005186200033f565b62000530816200052984546200046e565b84620004aa565b602080601f8311600181146200056857600084156200054f5750858301515b600019600386901b1c1916600185901b178555620004f4565b600085815260208120601f198616915b82811015620005995788860151825594840194600190910190840162000578565b5085821015620005b85787850151600019600388901b60f8161c191681555b5050505050600190811b01905550565b634e487b7160e01b600052601160045260246000fd5b600060018201620005f357620005f3620005c8565b5060010190565b60008219821115620006105762000610620005c8565b500190565b6122c480620006256000396000f3fe6080604052600436106101e35760003560e01c806370a082311161010257806395d89b4111610095578063c87b56dd11610064578063c87b56dd14610573578063e1ee5c8314610593578063e985e9c5146105b3578063f2fde38b146105fc57600080fd5b806395d89b41146104ee578063a22cb46514610503578063ada7c4ed14610523578063b88d4fde1461055357600080fd5b806389476069116100d157806389476069146104755780638d859f3e146104955780638da5cb5b146104b0578063941ada0e146104ce57600080fd5b806370a08231146103fd578063715018a61461042b57806387491c601461044057806387a7de561461045557600080fd5b80632904e6d91161017a5780633fc80006116101495780633fc800061461038857806342842e0e1461039d57806355f804b3146103bd5780636352211e146103dd57600080fd5b80632904e6d91461030e5780632a55205a146103215780632db11544146103605780633ccfd60b1461037357600080fd5b8063095ea7b3116101b6578063095ea7b31461028e57806321ff9970146102ae57806323b872dd146102ce578063268247d9146102ee57600080fd5b806301ffc9a7146101e857806306fdde031461021d578063081812fc1461023f578063083bbe7f14610277575b600080fd5b3480156101f457600080fd5b50610208610203366004611a4c565b61061c565b60405190151581526020015b60405180910390f35b34801561022957600080fd5b5061023261066e565b6040516102149190611ac1565b34801561024b57600080fd5b5061025f61025a366004611ad4565b610700565b6040516001600160a01b039091168152602001610214565b34801561028357600080fd5b5061028c610727565b005b34801561029a57600080fd5b5061028c6102a9366004611b02565b610745565b3480156102ba57600080fd5b5061028c6102c9366004611ad4565b61085f565b3480156102da57600080fd5b5061028c6102e9366004611b2e565b61086c565b3480156102fa57600080fd5b5061028c610309366004611b6f565b61089d565b61028c61031c366004611b8c565b6108c7565b34801561032d57600080fd5b5061034161033c366004611c07565b610a5d565b604080516001600160a01b039093168352602083019190915201610214565b61028c61036e366004611ad4565b610aee565b34801561037f57600080fd5b5061028c610b58565b34801561039457600080fd5b5061028c610bf0565b3480156103a957600080fd5b5061028c6103b8366004611b2e565b610c0c565b3480156103c957600080fd5b5061028c6103d8366004611c6b565b610c27565b3480156103e957600080fd5b5061025f6103f8366004611ad4565b610c3c565b34801561040957600080fd5b5061041d610418366004611b6f565b610c9c565b604051908152602001610214565b34801561043757600080fd5b5061028c610d22565b34801561044c57600080fd5b5061028c610d36565b34801561046157600080fd5b5061028c610470366004611cbb565b610d52565b34801561048157600080fd5b5061028c610490366004611b6f565b610d7d565b3480156104a157600080fd5b5061041d66d529ae9e86000081565b3480156104bc57600080fd5b506006546001600160a01b031661025f565b3480156104da57600080fd5b5060085460ff166040516102149190611d28565b3480156104fa57600080fd5b50610232610e64565b34801561050f57600080fd5b5061028c61051e366004611d50565b610e73565b34801561052f57600080fd5b5061020861053e366004611b6f565b600d6020526000908152604090205460ff1681565b34801561055f57600080fd5b5061028c61056e366004611d9f565b610e82565b34801561057f57600080fd5b5061023261058e366004611ad4565b610eba565b34801561059f57600080fd5b5061028c6105ae366004611ad4565b611007565b3480156105bf57600080fd5b506102086105ce366004611e7f565b6001600160a01b03918216600090815260056020908152604080832093909416825291909152205460ff1690565b34801561060857600080fd5b5061028c610617366004611b6f565b611014565b60006001600160e01b031982166380ac58cd60e01b148061064d57506001600160e01b03198216635b5e139f60e01b145b8061066857506301ffc9a760e01b6001600160e01b03198316145b92915050565b60606000805461067d90611ead565b80601f01602080910402602001604051908101604052809291908181526020018280546106a990611ead565b80156106f65780601f106106cb576101008083540402835291602001916106f6565b820191906000526020600020905b8154815290600101906020018083116106d957829003601f168201915b5050505050905090565b600061070b82611097565b506000908152600460205260409020546001600160a01b031690565b61072f6110f6565b600880546001919060ff191682805b0217905550565b600061075082610c3c565b9050806001600160a01b0316836001600160a01b0316036107c25760405162461bcd60e51b815260206004820152602160248201527f4552433732313a20617070726f76616c20746f2063757272656e74206f776e656044820152603960f91b60648201526084015b60405180910390fd5b336001600160a01b03821614806107de57506107de81336105ce565b6108505760405162461bcd60e51b815260206004820152603e60248201527f4552433732313a20617070726f76652063616c6c6572206973206e6f7420746f60448201527f6b656e206f776e6572206e6f7220617070726f76656420666f7220616c6c000060648201526084016107b9565b61085a8383611150565b505050565b6108676110f6565b600955565b61087633826111be565b6108925760405162461bcd60e51b81526004016107b990611ee7565b61085a83838361123d565b6108a56110f6565b600f80546001600160a01b0319166001600160a01b0392909216919091179055565b600160085460ff1660028111156108e0576108e0611d12565b146109225760405162461bcd60e51b81526020600482015260126024820152713bb434ba32b634b9ba103737ba1037b832b760711b60448201526064016107b9565b6109a68383808060200260200160405190810160405280939291908181526020018383602002808284376000920191909152505060095460405190925061098b91508590339060200191825260601b6bffffffffffffffffffffffff1916602082015260340190565b604051602081830303815290604052805190602001206113e8565b6109e95760405162461bcd60e51b815260206004820152601460248201527334b73b30b634b21036b2b935b63290383937b7b360611b60448201526064016107b9565b336000908152600d602052604090205460ff1615610a3a5760405162461bcd60e51b815260206004820152600e60248201526d185b1c9958591e481b5a5b9d195960921b60448201526064016107b9565b336000908152600d60205260409020805460ff1916600117905561085a816113fe565b60008281526002602052604081205481906001600160a01b0316610ab75760405162461bcd60e51b81526020600482015260116024820152703737b732bc34b9ba30b73a103a37b5b2b760791b60448201526064016107b9565b6000620186a0600e5485610acb9190611f4b565b610ad59190611f80565b600f546001600160a01b031693509150505b9250929050565b600260085460ff166002811115610b0757610b07611d12565b14610b4c5760405162461bcd60e51b81526020600482015260156024820152741c1d589b1a58c81b5a5b9d1a5b99c818db1bdcd959605a1b60448201526064016107b9565b610b55816113fe565b50565b610b606110f6565b604051600090339047908381818185875af1925050503d8060008114610ba2576040519150601f19603f3d011682016040523d82523d6000602084013e610ba7565b606091505b5050905080610b555760405162461bcd60e51b81526020600482015260156024820152741d1c985b9cd9995c881d5b9cdd58d8d95cdcd99d5b605a1b60448201526064016107b9565b610bf86110f6565b600880546002919060ff191660018361073e565b61085a83838360405180602001604052806000815250610e82565b610c2f6110f6565b600a61085a828483611fe2565b6000818152600260205260408120546001600160a01b0316806106685760405162461bcd60e51b8152602060048201526018602482015277115490cdcc8c4e881a5b9d985b1a59081d1bdad95b88125160421b60448201526064016107b9565b60006001600160a01b038216610d065760405162461bcd60e51b815260206004820152602960248201527f4552433732313a2061646472657373207a65726f206973206e6f7420612076616044820152683634b21037bbb732b960b91b60648201526084016107b9565b506001600160a01b031660009081526003602052604090205490565b610d2a6110f6565b610d3460006114bc565b565b610d3e6110f6565b600880546000919060ff191660018361073e565b610d5a6110f6565b600a610d67838583611fe2565b50600b805460ff19169115159190911790555050565b610d856110f6565b6040516370a0823160e01b81523060048201526000906001600160a01b038316906370a0823190602401602060405180830381865afa158015610dcc573d6000803e3d6000fd5b505050506040513d601f19601f82011682018060405250810190610df091906120a3565b60405163a9059cbb60e01b8152336004820152602481018290529091506001600160a01b0383169063a9059cbb906044016020604051808303816000875af1158015610e40573d6000803e3d6000fd5b505050506040513d601f19601f8201168201806040525081019061085a91906120bc565b60606001805461067d90611ead565b610e7e33838361150e565b5050565b610e8c33836111be565b610ea85760405162461bcd60e51b81526004016107b990611ee7565b610eb4848484846115dc565b50505050565b6000818152600260205260409020546060906001600160a01b0316610f395760405162461bcd60e51b815260206004820152602f60248201527f4552433732314d657461646174613a2055524920717565727920666f72206e6f60448201526e3732bc34b9ba32b73a103a37b5b2b760891b60648201526084016107b9565b600b5460ff16610fd557600a8054610f5090611ead565b80601f0160208091040260200160405190810160405280929190818152602001828054610f7c90611ead565b8015610fc95780601f10610f9e57610100808354040283529160200191610fc9565b820191906000526020600020905b815481529060010190602001808311610fac57829003601f168201915b50505050509050919050565b600a610fe08361160f565b604051602001610ff19291906120d9565b6040516020818303038152906040529050919050565b61100f6110f6565b600e55565b61101c6110f6565b6001600160a01b0381166110815760405162461bcd60e51b815260206004820152602660248201527f4f776e61626c653a206e6577206f776e657220697320746865207a65726f206160448201526564647265737360d01b60648201526084016107b9565b610b55816114bc565b80546001019055565b5490565b6000818152600260205260409020546001600160a01b0316610b555760405162461bcd60e51b8152602060048201526018602482015277115490cdcc8c4e881a5b9d985b1a59081d1bdad95b88125160421b60448201526064016107b9565b6006546001600160a01b03163314610d345760405162461bcd60e51b815260206004820181905260248201527f4f776e61626c653a2063616c6c6572206973206e6f7420746865206f776e657260448201526064016107b9565b600081815260046020526040902080546001600160a01b0319166001600160a01b038416908117909155819061118582610c3c565b6001600160a01b03167f8c5be1e5ebec7d5bd14f71427d1e84f3dd0314c0f7b2291e5b200ac8c7c3b92560405160405180910390a45050565b6000806111ca83610c3c565b9050806001600160a01b0316846001600160a01b0316148061121157506001600160a01b0380821660009081526005602090815260408083209388168352929052205460ff165b806112355750836001600160a01b031661122a84610700565b6001600160a01b0316145b949350505050565b826001600160a01b031661125082610c3c565b6001600160a01b0316146112b45760405162461bcd60e51b815260206004820152602560248201527f4552433732313a207472616e736665722066726f6d20696e636f72726563742060448201526437bbb732b960d91b60648201526084016107b9565b6001600160a01b0382166113165760405162461bcd60e51b8152602060048201526024808201527f4552433732313a207472616e7366657220746f20746865207a65726f206164646044820152637265737360e01b60648201526084016107b9565b600081815260046020908152604080832080546001600160a01b03191690556001600160a01b038616835260039091528120805460019290611359908490612170565b90915550506001600160a01b0382166000908152600360205260408120805460019290611387908490612187565b909155505060008181526002602052604080822080546001600160a01b0319166001600160a01b0386811691821790925591518493918716917fddf252ad1be2c89b69c2b068fc378daa952ba7f163c4a11628f55a4df523b3ef91a4505050565b6000826113f58584611710565b14949350505050565b600754600c541061143c5760405162461bcd60e51b81526020600482015260086024820152671cdbdb19081bdd5d60c21b60448201526064016107b9565b61144d8166d529ae9e860000611f4b565b341461148e5760405162461bcd60e51b815260206004820152601060248201526f1ddc9bdb99c81d985b1d59481cd95b9d60821b60448201526064016107b9565b60005b81811015610e7e576114aa336114a561175d565b611774565b806114b48161219f565b915050611491565b600680546001600160a01b038381166001600160a01b0319831681179093556040519116919082907f8be0079c531659141344cd1fd0a4f28419497f9722a3daafe3b4186f6b6457e090600090a35050565b816001600160a01b0316836001600160a01b03160361156f5760405162461bcd60e51b815260206004820152601960248201527f4552433732313a20617070726f766520746f2063616c6c65720000000000000060448201526064016107b9565b6001600160a01b03838116600081815260056020908152604080832094871680845294825291829020805460ff191686151590811790915591519182527f17307eab39ab6107e8899845ad3d59bd9653f200f220920489ca2b5937696c31910160405180910390a3505050565b6115e784848461123d565b6115f38484848461178e565b610eb45760405162461bcd60e51b81526004016107b9906121b8565b6060816000036116365750506040805180820190915260018152600360fc1b602082015290565b8160005b8115611660578061164a8161219f565b91506116599050600a83611f80565b915061163a565b60008167ffffffffffffffff81111561167b5761167b611d89565b6040519080825280601f01601f1916602001820160405280156116a5576020820181803683370190505b5090505b8415611235576116ba600183612170565b91506116c7600a8661220a565b6116d2906030612187565b60f81b8183815181106116e7576116e761221e565b60200101906001600160f81b031916908160001a905350611709600a86611f80565b94506116a9565b600081815b845181101561175557611741828683815181106117345761173461221e565b602002602001015161188f565b91508061174d8161219f565b915050611715565b509392505050565b600061176d600c80546001019055565b50600c5490565b610e7e8282604051806020016040528060008152506118c1565b60006001600160a01b0384163b1561188457604051630a85bd0160e11b81526001600160a01b0385169063150b7a02906117d2903390899088908890600401612234565b6020604051808303816000875af192505050801561180d575060408051601f3d908101601f1916820190925261180a91810190612271565b60015b61186a573d80801561183b576040519150601f19603f3d011682016040523d82523d6000602084013e611840565b606091505b5080516000036118625760405162461bcd60e51b81526004016107b9906121b8565b805181602001fd5b6001600160e01b031916630a85bd0160e11b149050611235565b506001949350505050565b60008183106118ab5760008281526020849052604090206118ba565b60008381526020839052604090205b9392505050565b6118cb83836118f4565b6118d8600084848461178e565b61085a5760405162461bcd60e51b81526004016107b9906121b8565b6001600160a01b03821661194a5760405162461bcd60e51b815260206004820181905260248201527f4552433732313a206d696e7420746f20746865207a65726f206164647265737360448201526064016107b9565b6000818152600260205260409020546001600160a01b0316156119af5760405162461bcd60e51b815260206004820152601c60248201527f4552433732313a20746f6b656e20616c7265616479206d696e7465640000000060448201526064016107b9565b6001600160a01b03821660009081526003602052604081208054600192906119d8908490612187565b909155505060008181526002602052604080822080546001600160a01b0319166001600160a01b03861690811790915590518392907fddf252ad1be2c89b69c2b068fc378daa952ba7f163c4a11628f55a4df523b3ef908290a45050565b6001600160e01b031981168114610b5557600080fd5b600060208284031215611a5e57600080fd5b81356118ba81611a36565b60005b83811015611a84578181015183820152602001611a6c565b83811115610eb45750506000910152565b60008151808452611aad816020860160208601611a69565b601f01601f19169290920160200192915050565b6020815260006118ba6020830184611a95565b600060208284031215611ae657600080fd5b5035919050565b6001600160a01b0381168114610b5557600080fd5b60008060408385031215611b1557600080fd5b8235611b2081611aed565b946020939093013593505050565b600080600060608486031215611b4357600080fd5b8335611b4e81611aed565b92506020840135611b5e81611aed565b929592945050506040919091013590565b600060208284031215611b8157600080fd5b81356118ba81611aed565b600080600060408486031215611ba157600080fd5b833567ffffffffffffffff80821115611bb957600080fd5b818601915086601f830112611bcd57600080fd5b813581811115611bdc57600080fd5b8760208260051b8501011115611bf157600080fd5b6020928301989097509590910135949350505050565b60008060408385031215611c1a57600080fd5b50508035926020909101359150565b60008083601f840112611c3b57600080fd5b50813567ffffffffffffffff811115611c5357600080fd5b602083019150836020828501011115610ae757600080fd5b60008060208385031215611c7e57600080fd5b823567ffffffffffffffff811115611c9557600080fd5b611ca185828601611c29565b90969095509350505050565b8015158114610b5557600080fd5b600080600060408486031215611cd057600080fd5b833567ffffffffffffffff811115611ce757600080fd5b611cf386828701611c29565b9094509250506020840135611d0781611cad565b809150509250925092565b634e487b7160e01b600052602160045260246000fd5b6020810160038310611d4a57634e487b7160e01b600052602160045260246000fd5b91905290565b60008060408385031215611d6357600080fd5b8235611d6e81611aed565b91506020830135611d7e81611cad565b809150509250929050565b634e487b7160e01b600052604160045260246000fd5b60008060008060808587031215611db557600080fd5b8435611dc081611aed565b93506020850135611dd081611aed565b925060408501359150606085013567ffffffffffffffff80821115611df457600080fd5b818701915087601f830112611e0857600080fd5b813581811115611e1a57611e1a611d89565b604051601f8201601f19908116603f01168101908382118183101715611e4257611e42611d89565b816040528281528a6020848701011115611e5b57600080fd5b82602086016020830137600060208483010152809550505050505092959194509250565b60008060408385031215611e9257600080fd5b8235611e9d81611aed565b91506020830135611d7e81611aed565b600181811c90821680611ec157607f821691505b602082108103611ee157634e487b7160e01b600052602260045260246000fd5b50919050565b6020808252602e908201527f4552433732313a2063616c6c6572206973206e6f7420746f6b656e206f776e6560408201526d1c881b9bdc88185c1c1c9bdd995960921b606082015260800190565b634e487b7160e01b600052601160045260246000fd5b6000816000190483118215151615611f6557611f65611f35565b500290565b634e487b7160e01b600052601260045260246000fd5b600082611f8f57611f8f611f6a565b500490565b601f82111561085a57600081815260208120601f850160051c81016020861015611fbb5750805b601f850160051c820191505b81811015611fda57828155600101611fc7565b505050505050565b67ffffffffffffffff831115611ffa57611ffa611d89565b61200e836120088354611ead565b83611f94565b6000601f841160018114612042576000851561202a5750838201355b600019600387901b1c1916600186901b17835561209c565b600083815260209020601f19861690835b828110156120735786850135825560209485019460019092019101612053565b50868210156120905760001960f88860031b161c19848701351681555b505060018560011b0183555b5050505050565b6000602082840312156120b557600080fd5b5051919050565b6000602082840312156120ce57600080fd5b81516118ba81611cad565b60008084546120e781611ead565b600182811680156120ff576001811461211457612143565b60ff1984168752821515830287019450612143565b8860005260208060002060005b8581101561213a5781548a820152908401908201612121565b50505082870194505b505050508351612157818360208801611a69565b64173539b7b760d91b9101908152600501949350505050565b60008282101561218257612182611f35565b500390565b6000821982111561219a5761219a611f35565b500190565b6000600182016121b1576121b1611f35565b5060010190565b60208082526032908201527f4552433732313a207472616e7366657220746f206e6f6e20455243373231526560408201527131b2b4bb32b91034b6b83632b6b2b73a32b960711b606082015260800190565b60008261221957612219611f6a565b500690565b634e487b7160e01b600052603260045260246000fd5b6001600160a01b038581168252841660208201526040810183905260806060820181905260009061226790830184611a95565b9695505050505050565b60006020828403121561228357600080fd5b81516118ba81611a3656fea2646970667358221220286a402bb67f065b5923ed2585c0aa0bc9f4164491aea931b26433301cf68fc464736f6c634300080f0033",
    "linkReferences": {}
  },
  "methodIdentifiers": {
    "PRICE()": "8d859f3e",
    "approve(address,uint256)": "095ea7b3",
    "balanceOf(address)": "70a08231",
    "closeMinting()": "87491c60",
    "getApproved(uint256)": "081812fc",
    "getMintStatus()": "941ada0e",
    "isApprovedForAll(address,address)": "e985e9c5",
    "mintedWallets(address)": "ada7c4ed",
    "name()": "06fdde03",
    "openPublic()": "3fc80006",
    "openWhitelist()": "083bbe7f",
    "owner()": "8da5cb5b",
    "ownerOf(uint256)": "6352211e",
    "publicMint(uint256)": "2db11544",
    "renounceOwnership()": "715018a6",
    "royaltyInfo(uint256,uint256)": "2a55205a",
    "safeTransferFrom(address,address,uint256)": "42842e0e",
    "safeTransferFrom(address,address,uint256,bytes)": "b88d4fde",
    "setApprovalForAll(address,bool)": "a22cb465",
    "setBaseURI(string)": "55f804b3",
    "supportsInterface(bytes4)": "01ffc9a7",
    "symbol()": "95d89b41",
    "tokenURI(uint256)": "c87b56dd",
    "transferFrom(address,address,uint256)": "23b872dd",
    "transferOwnership(address)": "f2fde38b",
    "updateRevealed(string,bool)": "87a7de56",
    "updateRoot(bytes32)": "21ff9970",
    "updateRoyaltyRate(uint256)": "e1ee5c83",
    "updateRoyaltyWallet(address)": "268247d9",
    "whitelistMint(bytes32[],uint256)": "2904e6d9",
    "withdraw()": "3ccfd60b",
    "withdrawToken(address)": "89476069"
  },
  "id": 19
}